:1055E500E4F594F593F592F591F596F595F5B2F503
:1055F500B1F5B4F5B3F5CAF5C9F5CCF5CBF5E2F5DA
:10560500E1F5D8F5D9F5DEF58EF598F59AF5ACF511
:1056150084F5A2F5BAF5AFF589F5E9F5F91265E670
:105625009004E61216CD0001C2007B01E4FDFF02E5
:025635003596A8
:10651400900576EFF0FDE4FF125868900576E0FFF1
:016524002254
:03002000C2AF224A
:03003E00D2AF221C
:105B730053A2F3EF14601214601714601C24037013
:105B83001E5392C35391C380165396C35395C38038
:105B93000E53E20F53E10F800653B2C353B1C390C8
:105BA30004EFE042CE9004EEE0700643CE8043CE95
:055BB3001043CE40226A
:10580E0053A2F3EF14600A14600C14600E2403808C
:10581E000D43A204800843A208800343A20C53CE7A
:10582E00FCED14600A14600C14600E2403800D430A
:10583E00CE01800843CE02800343CE03AF038FCF49
:0B584E00E5CD30E7FB75CDC0AFCF22E9
:1064C900EF1FAA0670011E4A60087D091DED60F0E4
:0264D90080FA47
:0164DB00229E
:105E3300E4900568F0A3F0FC90FE82E020E61E7F6C
:105E4300017E001264C9900568E475F001121575AE
:105E5300FEC3E5F0941EEE940040DD7C0190FE82CB
:065E6300E054BFF0AF04A3
:015E69002216
:0965CB0090FE817401F0025E33C0
:08640C00AF01EF25E04401FFA0
:0E64140090FE86EFF090FE817402F0025E337F
:0965D40090FE817403F0025E33B5
:0F65850090FE817404F0125E3390FE87E0FF22D7
:0F6316009004AEE0FBA3E0FAA3E0F9EF12148EBF
:0E63250090FE82E4F090FE817405F0025E337B
:0F65940090FE827401F090FE817405F0025E3378
:0965DD0090FE817406F0025E33A9
:105A9F0053BACF43BA80EF14600A14600C14600E2F
:105AAF002403800D43BA10800843BA20800343BA01
:105ABF003090FE80E04440F0E04480F0C083C0822C
:105ACF00E0FB9004A7A3A3A3E0FFEB4FD082D0830A
:075ADF00F090FE82E4F022CA
:104EF000A90553BACFEF14600A14600C14600E2495
:104F000003800D43BA10800843BA20800343BA30AF
:104F10001265CBEF60037F0122AF01EF25E0FF12A6
:104F20006414EF60037F01221265D4EF60037F01F8
:104F300022AF03126414EF60037F01221265D4EFE5
:104F400060037F0122900551E0FF126414EF6003BB
:104F50007F01221265D4EF60037F01221265DDEF2D
:084F600060037F01227F0022A3
:104D7D00A90553BACFEF14600A14600C14600E2409
:104D8D0003800D43BA10800843BA20800343BA3024
:104D9D001265CBEF60037F0122E925E0FF12641459
:104DAD00EF60037F01221265D4EF60037F0122AF14
:104DBD0003126414EF60037F01221265D4EF6003C8
:104DCD007F012212640CEF60037F01221265D4EF84
:104DDD0060037F01221265859004F3126319EF6061
:104DED00037F01221265DDEF60037F01227F002228
:104AB100A90553BACFEF14600A14600C14600E24D8
:104AC10003800D43BA10800843BA20800343BA30F3
:104AD1001265CBEF60037F0122E925E0FF12641428
:104AE100EF60037F01221265D4EF60037F0122AFE3
:104AF10003126414EF60037F01221265D4EF600397
:104B01007F012212640CEF60037F01221265D4EF52
:104B110060037F01229004B1E014F06018126585F2
:104B2100126316EF60037F01229004AFE475F00178
:104B310012155F80E0126585126316EF60037F0135
:0D4B4100221265DDEF60037F01227F00225C
:0B3596009004E3EFF0A3EDF0A3EBF0D6
:1035A100A3E0F8A3E0F9A3E0FAA3E0FB7FC07EFC6F
:1035B1007D9B7C011215C7E47B04FAF9F81215C74B
:1035C100C3E49FFFE49EAD07FC9004E3E014607246
:1035D10014700302367F1470030236BB24036003A8
:1035E1000236FA4398508D8BECF58D438E4053A2F1
:1035F1003F9004E4E0F9FF7E007008A3E0640170ED
:10360100028035EF64024E700D9004E5E0640370B2
:103611000543A2408022E96404700D9004E5E06452
:1036210005700543A2808010E96406700B9004E5E3
:10363100E06407700343A2C0D28EE49001CAF00295
:1036410036FA439A108DD7ECF5D6438E1453BAFE51
:103651009004E4E0FF7E0064087008A3E064097050
:10366100028011EF640A4E700B9004E5E0640B7068
:103671000343BA0143AF01E49001CBF0807B43AC3B
:10368100508DD5ECF5D443D10A53BAFD9004E4E052
:10369100FF7E00640C7008A3E0640D70028011EFDE
:1036A100640E4E700B9004E5E0640F700343BA02A0
:1036B10043AF08E49001CCF0803F4384508DD3ECBC
:1036C100F5D243D1A053BAFB9004E4E0FF7E00643D
:1036D100107008A3E0641170028016EF64124E703E
:1036E100109004E5E064137008F5CA75C90443BA83
:0B36F1000443AF10E49001CDF0D2AC18
:0136FC0022AB
:0F585900A3E475F001121575A9F0FA121448FDB9
:10586800EF14601514601D1460252403702D900139
:10587800CAE070FA04F08D99229001CBE070FA0426
:10588800F08D9B229001CCE070FA04F08DAD22904F
:0C58980001CDE070FA04F0AF058F85220E
:1060FB009004F7EBF0A3EAF0A3E9F0AE079004FAF3
:10610B0074FFF5F012157545F0600CAF069004F7AF
:08611B00E0FB12585980E62256
:10612300900556EBF0A3EAF0A3E9F0AE079005560D
:10613300E0FBA3E0FAA3E0F9121448600AAF06906B
:08614300055612585980E622AE
:1058A40043BC80EF131313541FFB7A006401701779
:1058B400EF5407FEF87401088002C333D8FCFEF4E9
:1058C4005294EE42938019EB4A7015EF5407FEF898
:1058D4007401088002C333D8FCFEF45292EE429164
:0958E400ED540F42DE43DE2022E8
:02605200A9059E
:1060540053BCF0EF42BC43BC40E5BC30E5FB53BC51
:10606400DFAFBDEFFEADBEEDFFAD01A805088005B5
:08607400CEC313CE13D8F9FFCF
:01607C002201
:105BFC00EF14601814602014602614602C240470B8
:105C0C0030E4F58AF58C438904D28C22E4F58BF5CB
:105C1C008D438940D28E22E4F5D7F5D6438E1822D7
:105C2C00E4F5D5F5D443D10C22E4F5D3F5D243D128
:025C3C00C02284
:105B2D00EF14601714601E14602514602C2404708B
:105B3D0030AF8CEFFCAF8AEFFD8026AF8DEFFCAF61
:105B4D008BEFFD801CAFD6EFFCAFD7EFFD8012AF12
:105B5D00D4EFFCAFD5EFFD8008AFD2EFFCAFD3EFA4
:055B6D00FDAF05AE04D0
:015B72002210
:1058ED00EF14601714601E146027146030240470C8
:1058FD0037C28CE4F58CF58AD28C22C28EE4F58DFC
:10590D00F58BD28E22538EEFE4F5D6F5D7438E105C
:10591D002253D1F7E4F5D4F5D543D1082253D17FE5
:09592D00E4F5D2F5D343D1802248
:053CED0090041FEFF040
:103CF200E4900428F043BA8090041FE0FF54F024BB
:103D020004FDE434FF8D82F583E054E7F0E0FEEF3A
:103D1200540333333354F8FFEE4FF0900420E0F8AD
:103D2200A3E0F9A3E0FAA3E0FB7FC07EFC7D9B7CCD
:103D3200011215C7780F12168E900428EFF0900426
:103D420020E0F8A3E0F9A3E0FAA3E0FB7FC07EFC49
:103D52007D9B7C011215C7C006C007900428E02491
:103D620001FFE433AB07FA3395E0F9F8D007D00648
:103D72001215C7900426EEF0A3EFF0900424E0FCA5
:103D8200A3E0FDE41211BA7B007A40791C78461256
:103D9200109FC004C005C006C007900426E0FCA323
:103DA200E0FDE41211BAD003D002D001D000120F0C
:103DB200961211F3900428E090FFF2F0900426E0AE
:103DC200FDA3E090FFF0CDF0A3EDF090041FE054CE
:103DD200F0FD7C002400FBEC34FF8B82F583EEF0D7
:103DE200A3EFF0ED2404FFEC34FF8F82F583E0446F
:083DF20080F053BA7F75FE80DA
:013DFA0022A6
:05553C00900577EFF07F
:1055410043BA80AE04AF05E41211BA7B007A407908
:105551001C784612109FC004C005C006C00790FF0A
:10556100F0E0FCA3E0FDE41211BAD003D002D001B7
:10557100D000120F961211F3900577E054F0240039
:10558100FDE434FF8D82F583EEF0A3EFF053BA7F93
:0155910022F7
:064DFD009005441216C1EE
:104E0300E4900548F043BA80900544E0F8A3E0F944
:104E1300A3E0FAA3E0FB7FC07EFC7D9B7C0112151F
:104E2300C7780F12168E900548EFF0900544E0F80E
:104E3300A3E0F9A3E0FAA3E0FB7FC07EFC7D9B7CAB
:104E4300011215C7C006C007900548E02401FFE41E
:104E530033AB07FA3395E0F9F8D007D0061215C73C
:104E6300900548E090FFF2F090FFF0EEF0A3EFF032
:034E730053BA7FB0
:014E76002219
:10638A004803AD00000000000000004803A500001B
:06639A00000000000000FD
:10542600E4F5D875D906EF64017054EDB40A00505E
:105436004E90543EF828287302545C02546002547D
:105446006402546802546C02547002547402547814
:1054560002547C025482E4F5DA2275DA422275DAC5
:10546600632275DA532275DA732275DA202275DA29
:10547600102275DA302275DA49D2DE2275DA4C222C
:10650200EF64017008AFFAEFFCAFEAEFFDAF05AE42
:016512000484
:016513002265
:0A001600EF64017004F5F9F5E9222A
:05386100900559EFF095
:10386600C2DEAFF9EFFFABE9EBA3CFF0A3EFF09029
:103876000559E0705A7E037FE81214D47C007D0C53
:103886001214C2AB07AA06E4F9F87FC07EFC7D9B42
:103896000C125BB8AC06AD079003A5ECF0A3EDF0F7
:1038A60075DA4985E9EA85F9FA9003A5E0FEA3E011
:1038B600FF9003AEE02FFF9003ADE03EFE90055B68
:1038C600E02FFF90055AE03E9003ADF0A3EFF09095
:1038D6000559E06401705A7E037FE81214D47C0017
:1038E6007D0C1214C2AB07AA06E4F9F87FC07EFC71
:1038F6007D9B0C125BB8AC06AD079003A7ECF0A35A
:10390600EDF075DB4985E9EB85F9FB9003A7E0FE51
:10391600A3E0FF9003B0E02FFF9003AFE03EFE90E0
:10392600055BE02FFF90055AE03E9003AFF0A3EF52
:10393600F0900559E06402704E7E037FE81214D4BD
:103946007C007D0C1214C2AB07AA06E4F9F87FC00E
:103956007EFC7D9B0C125BB89003A9EEF0A3EFF002
:1039660075DC4985E9EC85F9FC9003B2E02FFF9000
:1039760003B1E03EFE90055BE02FFF90055AE03E66
:093986009003B1F0A3EFF0D2DED2
:01398F002215
:105ED600EF7007ED24FF9288D2A8EF64017007EDFA
:105EE60024FF928AD2AAEFFD7C0064027003758FAC
:105EF60010ED64034C7003758F20ED64044C700341
:045F0600758F402231
:0563A00042056A08CA75
:0965E60075DD48E4F5D9D2DE228E
:10633300AFF9EFFEADE9EDFF90056BE02FFF9005A0
:0C6343006AE03E8FEDF5FD30DBFDC2DBB3
:01634F00222B
:10647900AB07AA06EB1BAE0270011A4E6005126348
:046489003380F12249
:10548600EDFB7A0064017025EFC4540F2410FDE48F
:1054960034FE8D82F583C083C082E0FEEF540FFF99
:1054A600F87401088002C333D8FC4E8028EB4A709A
:1054B60029EFC4540F2410FDE434FE8D82F583C019
:1054C60083C082E0FEEF540FFFF87401088002C328
:0B54D60033D8FCF45ED082D083F022BB
:1028A300EF54F0F9FB7A007062ED14601F1460308E
:1028B30014604424037054EF540FFEF8740108802D
:1028C30002C333D8FCF452935294803FEF540FFE6B
:1028D300F87401088002C333D8FCFEF452938028B5
:1028E300EF540FFEF87401088002C333D8FCFE4294
:1028F30093EEF452948014EF540FFEF874010880A1
:1029030002C333D8FCFE4293EE4294EB64104A7048
:1029130062ED14601F14603014604424037054EF9C
:10292300540FFEF87401088002C333D8FCF45291AB
:102933005292803FEF540FFEF87401088002C333B4
:10294300D8FCFEF452918028EF540FFEF87401086E
:102953008002C333D8FCFE4291EEF452928014EF0E
:10296300540FFEF87401088002C333D8FCFE429171
:10297300EE4292E964207062ED14601F146030141B
:10298300604424037054EF540FFEF874010880026E
:10299300C333D8FCF452955296803FEF540FFEF8A0
:1029A3007401088002C333D8FCFEF452958028EFEB
:1029B300540FFEF87401088002C333D8FCFE42951D
:1029C300EEF452968014EF540FFEF874010880025F
:1029D300C333D8FCFE4295EE4296E9FB7A0064309D
:1029E3007062ED14601F146030146044240370544B
:1029F300EF540FFEF87401088002C333D8FCF4527D
:102A0300B152B2803FEF540FFEF87401088002C345
:102A130033D8FCFEF452B18028EF540FFEF8740152
:102A2300088002C333D8FCFE42B1EEF452B28014E4
:102A3300EF540FFEF87401088002C333D8FCFE4242
:102A4300B1EE42B2EB64404A7062ED14601F146051
:102A53003014604424037054EF540FFEF8740108DB
:102A63008002C333D8FCF452B352B4803FEF540F07
:102A7300FEF87401088002C333D8FCFEF452B3801D
:102A830028EF540FFEF87401088002C333D8FCFE0C
:102A930042B3EEF452B48014EF540FFEF8740108FD
:102AA3008002C333D8FCFE42B3EE42B4E9645070F3
:102AB30062ED14601F14603014604424037054EFFB
:102AC300540FFEF87401088002C333D8FCF452C9D2
:102AD30052CA803FEF540FFEF87401088002C333DB
:102AE300D8FCFEF452C98028EF540FFEF874010895
:102AF3008002C333D8FCFE42C9EEF452CA8014EFFD
:102B0300540FFEF87401088002C333D8FCFE42C997
:102B1300EE42CAE9FB7A0064607062ED14601F1430
:102B2300603014604424037054EF540FFEF87401B2
:102B3300088002C333D8FCF452CB52CC803FEF540D
:102B43000FFEF87401088002C333D8FCFEF452CBA5
:102B53008028EF540FFEF87401088002C333D8FCB9
:102B6300FE42CBEEF452CC8014EF540FFEF8740106
:102B7300088002C333D8FCFE42CBEE42CCEB647038
:102B83004A7060ED14601E14602F146042240370B9
:102B930052EF540FFEF87401088002C333D8FCF4DB
:102BA30052E152E222EF540FFEF87401088002C38F
:102BB30033D8FCFEF452E18027EF540FFEF8740182
:102BC300088002C333D8FCFE42E1EEF452E222EF66
:102BD300540FFEF87401088002C333D8FCFE42E1AF
:042BE300EE42E222BA
:0665EF0025640025660092
:10652500C2A2C2A1AB07E4FD7F0112580ED2A2227E
:10653500C2A2D2A1AB07E4FD7F0112580ED2A2225E
:0260D200AC061A
:1060D400EC90056CF0A3EFF0C2A2D2A190056CE0A5
:1060E400FBE4FD7F0112580E90056DE0FBE4FD7F9B
:0660F4000112580ED2A2B9
:0160FA002283
:10536400900474EEF0A3EFF0A3ECF0A3EDF0A3EA45
:10537400F0A3EBF07F2A126525E4FF126535900453
:1053840074A3E02402FF126535E4FF12653590042E
:1053940078A3E02402FF1265357F2B126525E4FF14
:1053A400126535900476A3E004FF126535E4FF121C
:1053B400653590047AA3E004FF1265357F2C0265FD
:0153C40025C3
:0854E100900552EEF0A3EFF07C
:1054E90090047AE4F0A3749FF07B7F7A00E4FDFCDA
:1054F900FFFE125364E4900554F0900554E0C39400
:10550900A074809480502BE4A3F0900555E0C394D7
:1055190080748094805013900552E0FEA3E0FF123E
:1055290060D2900555E004F080E0900554E004F065
:0255390080C828
:01553B00224D
:102BE7009004ED7412F0E4A3F0A3F07B117D107F45
:102BF70001125B73C2A07F0A7E00126479D2A07FA4
:102C0700787E001264797F111265257F787E001225
:102C170064797FB11265257F011265357F2C1265B6
:102C2700357F2D1265357FB21265257F0112653517
:102C37007F2C1265357F2D1265357FB31265257F91
:102C4700011265357F2C1265357F2D1265357F01A1
:102C57001265357F2C1265357F2D1265357FB412CD
:102C670065257F071265357FC01265257FA212652E
:102C7700357F021265357F841265357FC112652560
:102C87007FC51265357FC21265257F0A126535E457
:102C9700FF1265357FC31265257F8A1265357F2A46
:102CA7001265357FC41265257F8A1265357FEE125E
:102CB70065357FC51265257F0E1265357F3612652E
:102CC70025E4701E14600E14600F14601024037046
:102CD700117FC0800AE4FF80067FA080027F601218
:102CE70065357FE01265257F0F1265357F1A1265FE
:102CF700357F0F1265357F181265357F2F126535C1
:102D07007F281265357F201265357F221265357F52
:102D17001F1265357F1B1265357F231265357F3797
:102D2700126535E4FF1265357F071265357F02129C
:102D370065357F101265357FE11265257F0F1265B6
:102D4700357F1B1265357F0F1265357F1712653585
:102D57007F331265357F2C1265357F291265357FE4
:102D67002E1265357F301265357F301265357F3914
:102D77001265357F3F126535E4FF1265357F07120F
:102D870065357F031265357F101265357F2A126519
:102D970025E4FF1265357F02126535E4FF126535BC
:102DA7007F821265357F2B126525E4FF1265357F1B
:102DB70003126535E4FF1265357F831265357FF0B1
:102DC7001265257F011265357FF6126525E4FF122E
:102DD70065357F3A1265257F051265357F291265AE
:082DE7002574FFFFFE0254E118
:105C3E009004FCEEF0A3EFF0900500EAF0A3EBF079
:105C4E009004FEECF0A3EDF09004FCE0FAA3E0FB70
:105C5E00FFAE02C007A3E0FFA3E090047ACFF0A34B
:105C6E00EFF0D007125364900500E0FEA3E0FF02B0
:025C7E0060D2F2
:0645E900F583E02430FB25
:1045EF0090047CEEF0A3EFF0A3ECF0A3EDF0A3EBBF
:0145FF00F0CB
:10460000E4A3F0900481E0F9C39410748094804096
:10461000030246B3E9FF90047FE02FFD90047EE0A3
:104620003400FC90047DE02407FB90047CE034001F
:10463000FA7E0090047EE0F8A3E02FFFEE389004AD
:104640007AF0A3EFF090047CE0FEA3E0FF12536445
:10465000900481E0FF900480E075F010A42496F5AA
:1046600082E5F034FEF583E5822FF582E43583F5AB
:1046700083E493900483F0E4900482F0900482E059
:10468000C39408748094805021A3E030E0067F003A
:104690007EF8800474FFFFFE1260D2900483E0C3B2
:1046A00013F0900482E004F080D2900481E004F0E2
:0346B000024603BC
:0146B30022E4
:10505600900447EEF0A3EFF0A3ECF0A3EDF0A3EB82
:07506600F0A3EAF0A3E9F05A
:10506D00E4A3F0A3F090044BE0FBA3E0FAA3E0F976
:10507D00A3E0FEA3E0FFF5828E83121461FB603E78
:10508D00EF7803C333CE33CED8F9FF900448E02F29
:10509D00FF900447E03EFE90044AE0C4F8540FC868
:1050AD0068FD900449E0C454F048FC1245EF9004AB
:0E50BD004FE004F070AF90044EE004F080A7C6
:0150CB0022C2
:10429A00900450EEF0A3EFF0A3ECF0A3EDF0A3EB43
:0142AA00F023
:1042AB003395E0C364809480900453E0C4F8540FBA
:1042BB00C868FD900452E0C454F048FC900450E0F0
:1042CB00FEA3E0FF40077B201245EF800C7B2D12F5
:1042DB0045EF900454E0F404F0900454E0FF75F0C3
:1042EB0064121426900455F0EF75F00A121426FF91
:1042FB0075F00A121426AFF0900456EFF0900454A8
:10430B00E0FF75F00A121426AFF0900457EFF0E4BB
:10431B00A3F0900458E0FBFF7E00C39403748094D9
:10432B00805045EF2401FFEE33FEEF7803C333CE0D
:10433B0033CED8F9FF900451E02FFF900450E03EAC
:10434B00FE900453E0C4F8540FC868FD900452E08B
:10435B00C454F048FC74552BF582E434041245E93F
:08436B00900458E004F080AA60
:014373002227
:0E4F6800900484EEF0A3EFF0A3ECF0A3EDF0C4
:104F7600EB75F06484A3F0EB75F00A8475F00A848F
:104F8600A3E5F0F0EB75F00A84A3E5F0F0E4A3F0F6
:104F960090048BE0C3940374809480503BE0FB75CF
:104FA600F008A4FF900485E02FFF900484E035F01C
:104FB600FE900487E0C4F8540FC868FD900486E0AC
:104FC600C454F048FC74882BF582E434041245E995
:084FD60090048BE004F080B8A8
:014FDE0022B0
:103990009003C2EEF0A3EFF0A3ECF0A3EDF0A3EAE6
:0439A000F0A3EBF0B5
:1039A400C3EA648094809003C5E0C4F8540FC868E7
:1039B400FD9003C4E0C454F048FC9003C2E0FEA3AD
:1039C400E0FF501C7B2D1245EF9003C6E0FEA3E000
:1039D400FFC3E49FFFE49E9003C6F0A3EFF08005CD
:1039E4007B201245EF9003C6E0FAA3E0FB7C277D21
:1039F40010FFAE02121529A3EFF07C037DE8AF039C
:103A0400AE021215297C007D0A121529A3EDF0904F
:103A140003C6A3E07C007D64FFAE021215297C007E
:103A24007D0A1215299003CAEDF07C007D0AAF03CC
:103A3400AE021215297C007D0A121529A3EDF0901F
:103A440003C6E0FEA3E0FF7C007D0A121529900363
:103A5400CCEDF0E4A3F09003CDE0FBFF7E00C39433
:103A640005748094805045EF2401FFEE33FEEF7817
:103A740003C333CE33CED8F9FF9003C3E02FFF90B6
:103A840003C2E03EFE9003C5E0C4F8540FC868FDCD
:103A94009003C4E0C454F048FC74C82BF582E434A9
:0C3AA400031245E99003CDE004F080AA75
:013AB00022F3
:0E46B400900429EEF0A3EFF0A3ECF0A3EDF0DC
:1046C2007C277D10AF03AE021214D4A3EFF07C035B
:1046D2007DE8AF03AE021214D47C007D0A1214D41A
:1046E200A3EDF07C007D64AF03AE021214D47C0013
:1046F2007D0A1214D4A3EDF07C007D0AAF03AE0252
:104702001214D47C007D0A1214D4A3EDF0AE02AFD1
:10471200037C007D0A1214D4A3EDF0E4A3F090040C
:1047220032E0C3940574809480503BE0FB75F0083E
:10473200A4FF90042AE02FFF900429E035F0FE90B8
:10474200042CE0C4F8540FC868FD90042BE0C45454
:10475200F048FC742D2BF582E434041245E99004F0
:0647620032E004F080B813
:01476800222E
:0E3EF4009002E7EEF0A3EFF0A3ECF0A3EDF0E8
:103F02009002EFE0FFC3740A9F7480F89850037424
:103F12000AF09002EFE004F09002EBE0FCA3E0FD77
:103F2200A3E0FEA3E0FFE4FBFAF9F8D31216674020
:103F3200319001D174FFF0A37465F0A374EFF09097
:103F420002EBE0FCA3E0FDA3E0FEA3E0FF9001D4BE
:103F52001216C10B7A0279F0121E7E900312EFF054
:103F620080389002F07420F09001D174FFF0A374B5
:103F720065F0A374EFF09002EBE0FCA3E0FDA3E098
:103F8200FEA3E0FF9001D41216C17B017A0279F1FF
:103F9200121E7E900312EFF0801E9002EFE0FF905F
:103FA2000312E0FEC39F501574F02EF582E4340232
:103FB200F5837420F0900312E004F080DD74F02F9A
:103FC200F582E43402F583E4F09002E7E0FEA3E038
:103FD200FFA3E0FCA3E0FD7B017A0279F0025056D8
:0E31380090025AEEF0A3EFF0A3ECF0A3EDF03E
:10314600900263E0FFC374069F7480F8985003747E
:1031560006F0900262E0FFC3740A9F7480F89850EC
:1031660003740AF090025EE0FCA3E0FDA3E0FEA378
:10317600E0FFE4FBFAF9F812113C9001D16031400E
:103186002F74FFF0A37465F0A374F2F090025EE072
:10319600FCA3E0FDA3E0FEA3E0FF9001D41216C15C
:1031A6007B017A027965121E7E900264EFF0803010
:1031B60074FFF0A37465F0A374F2F090025EE0FC75
:1031C600A3E0FDA3E0FEA3E0FF9001D41216C17BAD
:1031D600017A027966121E7E900264EFF0E004F036
:1031E600900264E024F9FD900262E0FEC3ED9E14B5
:1031F600900287F0900263E0AE052E04900288F0FC
:10320600900287E0FF3395E0FED3E49FEE6480F8FA
:103216007480984022A3E0FF3395E0FE74652FF595
:103226008274023EF5837420F0900288E004F090E8
:103236000287E004F080C990025EE0FCA3E0FDA3F3
:10324600E0FEA3E0FFE4FBFAF9F812113C900287D6
:1032560060174015E0FF3395E0FE74652FF5827424
:10326600023EF583742DF08013E0FF3395E0FE7483
:10327600652FF58274023EF5837420F0900288E093
:10328600FF3395E0FE74652FF58274023EF583E404
:10329600F090025AE0FEA3E0FFA3E0FCA3E0FD7B72
:0832A600017A0279650250561D
:0B3BD2009003FEEBF0A3EAF0A3E9F083
:103BDD0074FFFFFE1254E1E4900405F0A3F0E490AD
:103BED000403F0A3F0900403E0FAA3E0FB7C007D56
:103BFD0028FFAE021214C2C006C007A3E0FEA3E068
:103C0D00FF1214C2C006C007AF03AE021214C2EFFA
:103C1D002427FBE43EFA900405E0FEA3E0FF121416
:103C2D00C2EF2427FFE43E90047AF0A3EFF0D00515
:103C3D00D004D007D006125364E4900401F0A3F031
:103C4D00900402E025E0FF900401E033FE9003FEB6
:103C5D00E0FBA3E0FAA3E0F98F828E83121461904A
:103C6D000408F0E92FF9EA3EFA9000011214619070
:103C7D000407F0FEA3E0FDEDFF1260D2900402E018
:103C8D0004F07006900401E004F0C3900402E09487
:103C9D0040900401E06480948640A5900404E00403
:103CAD00F07006900403E004F0C3900404E0940364
:103CBD00900403E0648094805003023BF29004066C
:103CCD00E004F07006900405E004F0C3900406E0F3
:0F3CDD009404900405E0648094805003023BEB54
:013CEC0022B5
:10009600000000000000000000000000000000005A
:1000A6000000000808080808080800000808000002
:1000B6000048242412000000000000000000000098
:1000C6000000004848487E2424247E24242400007E
:1000D6000000103C5252121C30505052523C10102C
:1000E600000000222515150D2A58545452220000EE
:1000F6000000000C1212120A76252919916E0000D2
:1001060000060404020000000000000000000000D9
:1001160000402010100808080808081010204000A9
:10012600000204080810101010101008080402003D
:100136000000000008086B1C1C6B0808000000008B
:100146000000000000101010FE101010000000004B
:100156000000000000000000000000000604040289
:1001660000000000000000007E000000000000000B
:10017600000000000000000000000000060600006D
:100186000000402020201010080808040402020085
:100196000000001824424242424242422418000013
:1001A600000000101C10101010101010107C000021
:1001B6000000003C4242424020100804427E0000FB
:1001C6000000003C4242402018204042423C0000D1
:1001D60000000020303028242422FE2020F80000D1
:1001E6000000007E0202021E22404042221C000045
:1001F600000000182402023A4642424244380000F7
:100206000000007E422020101008080808080000A0
:100216000000003C4242422418244242423C000074
:100226000000001C22424242625C4040241800004A
:100236000000000000001818000000001818000058
:100246000000000000000008000000000008080888
:10025600000000402010080402040810204000009E
:100266000000000000007E00007E0000000000008C
:1002760000000002040810204020100804020000BC
:100286000000003C424246201010100018180000E2
:100296000000001C225A55555555553A423C00005F
:1002A6000000000808181414243C224242E700000B
:1002B6000000001F2222221E22424242221F00006C
:1002C6000000007C4242010101010142221C0000A3
:1002D6000000001F2242424242424242221F0000C8
:1002E6000000003F4212121E12120242423F00005C
:1002F6000000003F4212121E121202020207000004
:100306000000003C2222010101712122221C000072
:10031600000000E7424242427E42424242E700007B
:100326000000003E0808080808080808083E000003
:100336000000007C10101010101010101010110F7B
:100346000000007722120A0E0A12122222770000FB
:10035600000000070202020202020202427F0000BF
:100366000000007736363636362A2A2A2A6B0000EF
:10037600000000E346464A4A525252626247000073
:100386000000001C2241414141414141221C000024
:100396000000003F424242423E02020202070000C3
:1003A6000000001C224141414141414D321C600088
:1003B6000000003F4242423E1212222242C7000083
:1003C6000000007C4242020418204042423E0000E7
:1003D6000000007F4908080808080808081C0000F3
:1003E600000000E74242424242424242423C000092
:1003F600000000E7424222242414141808080000D2
:100406000000006B2A2A2A2A2A3614141414000023
:10041600000000E7422424181818242442E70000AC
:10042600000000772222141408080808081C00009F
:100436000000007E2120101008040442423F000004
:100446000078080808080808080808080808780056
:100456000000020404040808081010202020404070
:10046600001E1010101010101010101010101E008A
:10047600001824000000000000000000000000003A
:1004860000000000000000007E00000000000000E8
:100496000006080000000000000000000000000048
:1004A600000000000000001C22302C22326C0000EC
:1004B600000000000302021A26424242261A0000E9
:1004C6000000000000000038440202024438000028
:1004D600000000006040407C4242424262DC000074
:1004E600000000000000003C42427E02423C000048
:1004F600000000003048083E08080808083E0000D2
:10050600000000000000007C22221C023C42423C0B
:10051600000000000302023A4642424242E700005F
:100526000000000C0C00000E08080808083E000039
:100536000000003030000038202020202020221E1D
:100546000000000003020272120A0E122277000057
:10055600000000080E08080808080808083E000001
:10056600000000000000007F9292929292B7000075
:10057600000000000000003B4642424242E7000005
:10058600000000000000003C42424242423C0000A3
:10059600000000000000001B26424242261A020705
:1005A600000000000000005864424242645840E0E7
:1005B60000000000000000774C040404041F000043
:1005C600000000000000007C42023C40423E000069
:1005D600000000000008083E08080808483000002F
:1005E60000000000000000634242424262DC00005C
:1005F6000000000000000077222214140808000002
:1006060000000000000000DB91525A2A242400005A
:10061600000000000000006E241818182476000060
:1006260000000000000000E742242418180808060D
:10063600000000000000007E22100808447E000032
:1006460000C0202020202020102020202020C000B4
:100656001010101010101010101010101010101094
:10066600000304040404040408040404040403004A
:10067600045A2000000000000000000000000000F6
:100686000000000000000000002F0000000007002E
:10069600070000147F147F1400242A7F2A120062A8
:1006A6006408132300364955225000000503000054
:1006B60000001C224100000041221C000014083EDC
:1006C60008140008083E0808000000A060000008A2
:1006D60008080808000060600000002010080402F6
:1006E600003E5149453E0000427F400000426151B4
:1006F6004946002141454B31001814127F1000274E
:1007060045454539003C4A49493000017109050310
:1007160000364949493600064949291E0000363641
:1007260000000000563600000008142241000014A4
:100736001414141400004122140800020151090681
:1007460000324959513E007C1211127C007F494902
:100756004936003E41414122007F4141221C007F33
:1007660049494941007F09090901003E4149497A41
:10077600007F0808087F0000417F410000204041BB
:100786003F01007F08142241007F40404040007F27
:10079600020C027F007F0408107F003E4141413E6B
:1007A600007F09090906003E4151215E007F0919B3
:1007B60029460046494949310001017F0101003FB0
:1007C6004040403F001F2040201F003F4038403F30
:1007D6000063140814630007087008070061514994
:1007E600454300007F41410000552A552A55000027
:1007F60041417F00000402010204004040404040A5
:10080600000001020400002054545478007F48443C
:10081600443800384444442000384444487F003873
:100826005454541800087E0901020018A4A4A47C9C
:10083600007F080404780000447D40000040808466
:100846007D00007F102844000000417F4000007CAE
:1008560004180478007C08040478003844444438BA
:1008660000FC242424180018242418FC007C080406
:10087600040800485454542000043F444020003CDF
:100886004040207C001C2040201C003C4030403C66
:10089600004428102844001CA0A0A07C00446454F6
:1008A6004C4414141414141400000000000000003A
:1008B6000000000000000000000000F8000000003A
:1008C600000000333000000000100C06100C06007B
:1008D600000000000000000040C07840C0784000E2
:1008E600043F04043F040400007088FC0830000044
:1008F600001820FF211E0000F008F000E01800009C
:1009060000211C031E211E0000F008887000000054
:100916001E2123241927211010160E0000000000A6
:100926000000000000000000000000E018040200C3
:10093600000000071820400000020418E000000034
:100946000040201807000000404080F08040400032
:100956000202010F01020200000000F00000000088
:100966000101011F0101010000000000000000005C
:1009760080B07000000000000000000000000000D1
:10098600000101010101010100000000000000005A
:1009960000303000000000000000000080601804F5
:1009A600006018060100000000E010080810E000D2
:1009B600000F102020100F00001010F8000000009B
:1009C6000020203F202000000070080808887000E2
:1009D6000030282422213000003008888848300062
:1009E6000018202020110E000000C02010F8000082
:1009F60000070424243F240000F80888880808001B
:100A06000019212020110E0000E01088881800002F
:100A1600000F112020110E0000380808C838080001
:100A26000000003F00000000007088080888700081
:100A3600001C222121221C0000E010080810E00002
:100A46000000312222110F00000000C0C00000008B
:100A560000000030300000000000008000000000B0
:100A660000008060000000000000804020100800A8
:100A76000001020408102000404040404040400071
:100A8600040404040404040000081020408000004C
:100A96000020100804020100007048080808F00051
:100AA6000000003036010000C030C828E810E00021
:100AB6000718272423140B000000C038E0000000AC
:100AC600203C23020227382008F888888870000016
:100AD600203F202020110E00C030080808083800EA
:100AE600071820202010080008F808080810E00061
:100AF600203F202020100F0008F88888E808100002
:100B0600203F20202320180008F88888E8081000D5
:100B1600203F200003000000C0300808083800000D
:100B260007182020221E020008F808000008F8080E
:100B3600203F210101213F20000808F80808000095
:100B46000020203F2020000000000808F8080800C8
:100B5600C08080807F00000008F888C02818080040
:100B6600203F20012638200008F808000000000079
:100B7600203F20202020300008F8F800F8F8080070
:100B8600203F003F003F200008F830C00008F8086A
:100B9600203F200007183F00E01008080810E0007A
:100BA6000F10202020100F0008F808080808F00091
:100BB600203F210101010000E01008080810E000B4
:100BC6000F18242438504F0008F888888888700049
:100BD600203F2000030C30200070880808083800E9
:100BE6000038202121221C00180808F808081800DF
:100BF6000000203F2000000008F808000008F80860
:100C0600001F202020201F000878880000C8380810
:100C1600000007380E010000F80800F80008F80088
:100C2600033C0700073C0300081868808068180822
:100C360020302C03032C30200838C800C8380800A0
:100C46000000203F2000000010080808C8380800EF
:100C56002038262120201800000000FE0202020093
:100C66000000007F40404000000C30C00000000043
:100C7600000000010638C00000020202FE0000006B
:100C8600004040407F000000000004020202040011
:100C9600000000000000000000000000000000004E
:100CA6008080808080808080000202040000000036
:100CB600000000000000000000008080808000002E
:100CC6000019242222223F2008F80080800000001C
:100CD600003F112020110E000000008080800000DF
:100CE600000E112020201100000000808088F800EE
:100CF600000E112020103F20000080808080000020
:100D0600001F222222221300008080F08888881883
:100D16000020203F2020000000008080808080008E
:100D2600006B94949493600008F800808080000023
:100D3600203F210000203F200080989800000000FE
:100D46000020203F2020000000000080989800002E
:100D560000C08080807F000008F80000808080004E
:100D6600203F24022D302000000808F80000000073
:100D76000020203F2020000080808080808080002E
:100D8600203F20003F20003F8080008080800000C0
:100D9600203F210000203F2000008080808000004E
:100DA600001F202020201F0080800080800000007F
:100DB60080FFA12020110E000000008080808000AE
:100DC600000E112020A0FF8080808000808080009F
:100DD60020203F21200001000000808080808000CC
:100DE6000033242424241900008080E08080000041
:100DF6000000001F2020000080800000008080008E
:100E0600001F202020103F208080800000808080EE
:100E160000010E300806010080800080008080807E
:100E26000F300C030C300F000080800080808000A3
:100E36000020312E0E3120008080800000808080CE
:100E460080818E701806010000808080808080007E
:100E56000021302C2221300000000000807C02029C
:100E660000000000003F404000000000FF000000BE
:100E760000000000FF0000000002027C800000006D
:100E86000040403F00000000000601010202040489
:080E9600000000000000000054
:10005E00E4900578F0900578E064126017E4FB7D7B
:10006E00757F69125DC0900578EFF07F0A7E0012F1
:04007E00647980E140
:01008200225B
:10529A007F0A7E0012647912005E7B807D6B7F69D3
:1052AA001263A67F027E00126479E4FB7D6B7F693C
:1052BA00125DC0EF20E7F37B017D6B7F691263A665
:1052CA00E4FB7D6C7F691263A67B017D1A7F6912FC
:1052DA0063A67B077D197F691263A67B187D1B7FF6
:1052EA00691263A67B107D1C7F691263A67B037D0E
:0652FA001D7F690263A69E
:1056DA007B017A0579029004BE7406F0E4A3F07D9A
:1056EA003B7F69124E77900502E0FEA3E0FDEDFFD5
:1056FA009003CEEEF0A3EFF0900504E0FEA3E0FDE8
:10570A00EDFF9003D0EEF0A3EFF0900506E0FEA3C4
:0C571A00E0FDEDFF9003D2EEF0A3EFF0F5
:015726002260
:105727007B017A0579089004BE7406F0E4A3F07D46
:10573700437F69124E77900508E0FEA3E0FDEDFF79
:105747009003D4EEF0A3EFF090050AE0FEA3E0FD8E
:10575700EDFF9003D6EEF0A3EFF090050CE0FEA36B
:0C576700E0FDEDFF9003D8EEF0A3EFF0A2
:015773002213
:06614B00C292EF4480FF48
:10615100E4FEEEC39408748094805015EF3392935B
:10616100EF25E0FFC295D295A294E4334FFF0E8054
:01617100E14C
:01617200220A
:0D000600C292126151AF05126151D29222D7
:0F65A30012614BE4FF126151EF12148ED292225B
:0B5D030090054AEBF0A3EAF0A3E9F0E2
:105D0E0012614BE4FDFC90054DE0FFC3ED9FEC945A
:105D1E0000501FE4FF12615190054AE0FBA3E0FA28
:105D2E00A3E0F98D828C83EF1214A00DBD00010C3F
:045D3E0080D4D292A9
:015D4200223E
:10648D007B017A0579797F751265A3900579E064B2
:03649D001270ED8D
:0164A00022D9
:1055920012648D7D807F6B1200067F027E00126492
:1055A200797B017A05797A7F6B1265A390057AE09F
:1055B200644170ED7D017F6B1200061D7F6C12004D
:1055C200060D7F1A1200067D077F191200067D184C
:1055D2007F1B1200067D107F1C1200067D037F1DBB
:0355E200020006BE
:10597F007B017A05790E90054D7406F07F3B125D21
:10598F000390050EE0FEA3E0FDEDFF9003CEEEF0D9
:10599F00A3EFF0900510E0FEA3E0FDEDFF9003D024
:1059AF00EEF0A3EFF0900512E0FEA3E0FDEDFF9007
:0759BF0003D2EEF0A3EFF0AC
:0159C60022BE
:1059C7007B017A05791490054D7406F07F43125DCB
:1059D70003900514E0FEA3E0FDEDFF9003D4EEF085
:1059E700A3EFF0900516E0FEA3E0FDEDFF9003D6D0
:1059F700EEF0A3EFF0900518E0FEA3E0FDEDFF90B9
:075A070003D8EEF0A3EFF05D
:015A0E002275
:0E642200EBF0A3EAF0A3E9F0C292EF4480FF92
:08643000AB07E4FDFF02580E6A
:1000260090057BEDF0C29212643090057BE0FF12E2
:050036006430D29222AB
:1063500090055C126422E4FF12643090055CE0FB5F
:0D636000A3E0FAA3E0F9EF12148ED292220E
:035637009004B329
:10563A00126422E49004B7F0A3F09004B6E0FFC32A
:10564A009004B8E09F9004B7E09400502FE4FF1252
:10565A0064309004B3E0FBA3E0FAA3E0F99004B746
:10566A00E0FCA3E0F5828C83EF1214A09004B8E06A
:0E567A0004F070C69004B7E004F080BED29237
:0156880022FF
:10625500E490057CF090057CE0641260147B017A83
:1062650005797C7F751263507F0A7E001264798000
:01627500E444
:016276002205
:1051B700E490057DF07F0AFE1264799004ED740295
:1051C700F0E4A3F0A3F07B01FDFF125B73126255BD
:1051D7007D807F6B1200267F027E001264797B013F
:1051E7007A05797D7F6B12635090057DE06441708D
:1051F700ED7D017F6B120026E4FD7F6C1200267D9A
:10520700017F1A1200267D077F191200267D187F5D
:105217001B1200267D107F1C1200267D037F1D02B6
:0252270000265F
:105A0F007B017A05791A9004B67406F07F3B125623
:105A1F003790051AE0FEA3E0FDEDFF9003CEEEF008
:105A2F00A3EFF090051CE0FEA3E0FDEDFF9003D087
:105A3F00EEF0A3EFF090051EE0FEA3E0FDEDFF906A
:075A4F0003D2EEF0A3EFF01B
:015A5600222D
:105A57007B017A0579209004B67406F07F431256CD
:105A670037900520E0FEA3E0FDEDFF9003D4EEF0B4
:105A7700A3EFF0900522E0FEA3E0FDEDFF9003D633
:105A8700EEF0A3EFF0900524E0FEA3E0FDEDFF901C
:075A970003D8EEF0A3EFF0CD
:015A9E0022E5
:01004100229C
:07643800C29512643FD295EA
:0E643F007F647E00EF1FAC0670011E4C70F6ED
:01644D00222C
:0F65B200D293D29512643FC29312643FC29522D6
:0A004600C293126438D29302643FA3
:1063C200AD07C29512643FED6004C2938002D2937E
:0A63D200D29512643FC29502643FA9
:10644E00126438309306C295E4FEFF22C2951264A0
:06645E003F7E007F0122D9
:04619B00E025E0FF1C
:02619F00AD074A
:1061A1007B08AF031BEF6015ED30E704D29380024B
:1061B100C293ED25E0FD12643AC29580E502644E7A
:025EA100AD074B
:105EA300E4FBC29512643FD293E4FAEAC394087404
:105EB300809480501112643F126438EB25E0FB306C
:105EC30093010B0A80E5C29512643FAF051263C2CA
:025ED300AF031B
:015ED50022AA
:1063A60090057EEFF0AA03A9051265B212619BAFB4
:0C63B6000112619FAF0212619F020046BD
:095DC00090057FEDF0AA07A9038C
:105DC9001265B2EA25E0FF12619FE0FF12619FE9C7
:105DD900640170031200461265B2AF02EF25E04478
:105DE90001FF12619FE4FF125EA1AD07120046AFE9
:015DF90005A4
:015DFA002286
:104E77009004B9EFF0A3EDF0A3EBF0A3EAF0A3E9F8
:104E8700F01265B29004B912619BA3E0FF12619F13
:104E97009004BFE0640170031200461265B29004EB
:104EA700B9E025E04401FF12619F9004BEE014F0D1
:104EB70060207F01125EA19004BBE0FBA3E0FAA390
:104EC700E0F9EF12148E9004BCE475F00112155F3F
:104ED70080D8E4FF125EA19004BBE0FBA3E0FAA335
:094EE700E0F9EF12148E020046FE
:10654500E4FD7F0D1258A47D0A7C00E4FF0238614A
:10530000E4900580F0FDFF1258687DFFE4FF12581D
:10531000687D01E4FF125868E4FDFF125868E490CC
:105320000580F0900580E0FFC394807480948050E5
:1053300032EF25E02401F582E43400F583E0FDE45A
:10534000FF125868900580E025E02401F582E434DE
:1053500000F583A3E0FDE4FF125868900580E004A7
:03536000F080C01A
:015363002227
:105AE600E4900581F0D2B6C2B7C2B6D2B7D2B6C27A
:105AF600B7F0900581E0C39480748094805027C2EB
:105B0600B67D027F0D126052900581E025E02401EA
:105B1600F582E43400F583EEF0A3EFF0D2B69005FB
:065B260081E004F080CCD8
:015B2C002256
:0665F5002564002566008C
:10655500C2A2C2A1AB07E4FD7F0112580ED2A2224E
:10656500C2A2D2A1AB07E4FD7F0112580ED2A2222E
:075F0A002428FFE03400FE33
:025F1100AC06DC
:105F1300EC90056EF0A3EFF0C2A2D2A190056EE063
:105F2300FBE4FD7F0112580E90056FE0FBE4FD7F5B
:065F33000112580ED2A27B
:015F39002245
:1036FD009004ED7412F0E4A3F0A3F07B117D107F24
:10370D0001125B73D2A4C2A1C2A07FC87E00126455
:10371D0079D2A07F647E001264797F361265557F61
:10372D00A01265657F3A1265557F051265657FB2FA
:10373D001265557F0C1265657F0C126565E4FF12ED
:10374D0065657F331265657F331265657FB71265D9
:10375D00557F351265657FBB1265557F37126565DF
:10376D007FC01265557F2C1265657FC21265557F2E
:10377D00011265657FC31265557F121265657FC4A1
:10378D001265557F201265657FC61265557F0F1234
:10379D0065657FD01265557FA41265657FA11265A1
:1037AD00657FE01265557FD01265657F04126565F2
:1037BD007F0D1265657F111265657F131265657F3B
:1037CD002B1265657F3F1265657F541265657F4CD1
:1037DD001265657F181265657F0D1265657F0B1289
:1037ED0065657F1F1265657F231265657FE1126533
:1037FD00557FD01265657F041265657F0C12656576
:10380D007F111265657F131265657F2C1265657FCB
:10381D003F1265657F441265657F511265657F2F87
:10382D001265657F1F1265657F1F1265657F20120A
:10383D0065657F231265657F211265557F111265C0
:10384D00557F787E001264797F2912655574FFFFCC
:04385D00FE025229EC
:1056890090048CEEF0A3EFF0A3ECF0A3EDF0A3EA05
:10569900F0A3EBF07F2A12655590048DE090048CFD
:1056A900125F0A900491E0900490125F0A7F2B1216
:1056B900655590048FE02434FF90048E125F0D909D
:1056C9000493E02434FF900492125F0D7F2C02654D
:0156D900557B
:0852290090052CEEF0A3EFF05C
:10523100900492E4F0A37486F07BEF7A00E4FDFC25
:10524100FFFE125689E490052EF0A3F0E49005309C
:10525100F0A3F090052CE0FEA3E0FF125F11900592
:1052610031E004F07006900530E004F0C3900531A0
:10527100E09487900530E0940040D890052FE00439
:10528100F0700690052EE004F0C390052FE094F035
:0852910090052EE0940040B4EA
:0152990022F2
:105C8000900532EEF0A3EFF0900536EAF0A3EBF0CA
:105C9000900534ECF0A3EDF0900532E0FAA3E0FBC0
:105CA000FFAE02C007A3E0FFA3E0900492CFF0A3F1
:105CB000EFF0D007125689900536E0FEA3E0FF0210
:025CC0005F1172
:0641BA00F583E02430FB58
:1041C000900494EEF0A3EFF0A3ECF0A3EDF0A3EBDA
:0141D000F0FE
:1041D100E4A3F0900499E0F9C394107480948040B2
:1041E10003024299E9FF900497E02FFD900496E0C5
:1041F1003400FC900495E02407FB900494E0340023
:10420100FA7E00900496E0F8A3E02FFFEE389004C8
:1042110092F0A3EFF0900494E0FEA3E0FF12568920
:10422100900498E0FF3395E0FEEFC4F8540FC8689E
:10423100FFEEC454F048FE74962FF58274FE3EF5ED
:1042410083C083C082900499E0D082D0832582F517
:1042510082E43583F583E49390049BF0E490049A1F
:10426100F090049AE0C39408748094805021A3E0F4
:1042710030E0067F007EF8800474FFFFFE125F11BC
:1042810090049BE0C313F090049AE004F080D29074
:084291000499E004F00241D49D
:014299002202
:1050CC00900459EEF0A3EFF0A3ECF0A3EDF0A3EBFA
:0750DC00F0A3EAF0A3E9F0E4
:1050E300E4A3F0A3F090045DE0FBA3E0FAA3E0F9EE
:1050F300A3E0FEA3E0FFF5828E83121461FB603E02
:10510300EF7803C333CE33CED8F9FF90045AE02FA0
:10511300FF900459E03EFE90045CE0C4F8540FC8CD
:1051230068FD90045BE0C454F048FC1241C0900455
:0E51330061E004F070AF900460E004F080A72B
:01514100224B
:10437400900462EEF0A3EFF0A3ECF0A3EDF0A3EB56
:01438400F048
:104385003395E0C364809480900465E0C4F8540FCD
:10439500C868FD900464E0C454F048FC900462E0F1
:1043A500FEA3E0FF500E7B2D1241C0900466E0F4A1
:1043B50004F080057B201241C0900466E0FF75F093
:1043C50064121426900467F0EF75F00A121426FFA4
:1043D50075F00A121426AFF0900468EFF0900466A9
:1043E500E0FF75F00A121426AFF0900469EFF0E4CF
:1043F500A3F090046AE0FBFF7E00C39403748094ED
:10440500805045EF2401FFEE33FEEF7803C333CE32
:1044150033CED8F9FF900463E02FFF900462E03EAD
:10442500FE900465E0C4F8540FC868FD900464E08C
:10443500C454F048FC74672BF582E434041241BA85
:0844450090046AE004F080AA73
:01444D00224C
:0E4FDF0090049CEEF0A3EFF0A3ECF0A3EDF035
:104FED00EB75F06484A3F0EB75F00A8475F00A8418
:104FFD00A3E5F0F0EB75F00A84A3E5F0F0E4A3F07F
:10500D009004A3E0C3940374809480503BE0FB753F
:10501D00F008A4FF90049DE02FFF90049CE035F074
:10502D00FE90049FE0C4F8540FC868FD90049EE004
:10503D00C454F048FC74A02BF582E434041241BA38
:08504D009004A3E004F080B818
:015055002238
:103AB1009003DAEEF0A3EFF0A3ECF0A3EDF0A3EAAC
:043AC100F0A3EBF093
:103AC500C3EA648094809003DDE0C4F8540FC868AD
:103AD500FD9003DCE0C454F048FC9003DAE0FEA35B
:103AE500E0FF501C7B2D1241C09003DEE0FEA3E0F9
:103AF500FFC3E49FFFE49E9003DEF0A3EFF0800593
:103B05007B201241C09003DEE0FAA3E0FB7C277D19
:103B150010FFAE02121529A3EFF07C037DE8AF0379
:103B2500AE021215297C007D0A121529A3EDF0902D
:103B350003DEA3E07C007D64FFAE021215297C0044
:103B45007D0A1215299003E2EDF07C007D0AAF0392
:103B5500AE021215297C007D0A121529A3EDF090FD
:103B650003DEE0FEA3E0FF7C007D0A121529900329
:103B7500E4EDF0E4A3F09003E5E0FBFF7E00C394E1
:103B850005748094805045EF2401FFEE33FEEF78F5
:103B950003C333CE33CED8F9FF9003DBE02FFF907C
:103BA50003DAE03EFE9003DDE0C4F8540FC868FD7B
:103BB5009003DCE0C454F048FC74E02BF582E43457
:0C3BC500031241BA9003E5E004F080AA6E
:013BD10022D1
:0E476900900433EEF0A3EFF0A3ECF0A3EDF01C
:104777007C277D10AF03AE021214D4A3EFF07C03A5
:104787007DE8AF03AE021214D47C007D0A1214D464
:10479700A3EDF07C007D64AF03AE021214D47C005D
:1047A7007D0A1214D4A3EDF07C007D0AAF03AE029C
:1047B7001214D47C007D0A1214D4A3EDF0AE02AF1C
:1047C700037C007D0A1214D4A3EDF0E4A3F0900457
:1047D7003CE0C3940574809480503BE0FB75F0087F
:1047E700A4FF900434E02FFF900433E035F0FE90EF
:1047F7000436E0C4F8540FC868FD900435E0C4548B
:10480700F048FC74372BF582E434041241BA900463
:064817003CE004F080B853
:01481D002278
:0E3FE200900313EEF0A3EFF0A3ECF0A3EDF0CC
:103FF00090031BE0FFC3740A9F7480F89850037409
:104000000AF090031BE004F0900317E0FCA3E0FD2E
:10401000A3E0FEA3E0FFE4FBFAF9F8D31216674031
:104020003190022D74FFF0A37465F0A374F5F09045
:104030000317E0FCA3E0FDA3E0FEA3E0FF90023045
:104040001216C10B7A03791C12248590033EEFF0FF
:10405000803890031C7420F090022D74FFF0A3743C
:1040600065F0A374F5F0900317E0FCA3E0FDA3E076
:10407000FEA3E0FF9002301216C17B017A03791D86
:1040800012248590033EEFF0801E90031BE0FF900A
:10409000033EE0FEC39F5015741C2EF582E43403EA
:1040A000F5837420F090033EE004F080DD741C2F53
:1040B000F582E43403F583E4F0900313E0FEA3E01B
:1040C000FFA3E0FCA3E0FD7B017A03791C0250CC46
:0E32AE00900289EEF0A3EFF0A3ECF0A3EDF098
:1032BC00900292E0FFC374069F7480F898500374D8
:1032CC0006F0900291E0FFC3740A9F7480F8985046
:1032DC0003740AF090028DE0FCA3E0FDA3E0FEA3D2
:1032EC00E0FFE4FBFAF9F812113C90022D6031403A
:1032FC002F74FFF0A37465F0A374F8F090028DE0C6
:10330C00FCA3E0FDA3E0FEA3E0FF9002301216C187
:10331C007B017A027994122485900293EFF080302D
:10332C0074FFF0A37465F0A374F8F090028DE0FCC8
:10333C00A3E0FDA3E0FEA3E0FF9002301216C17BD8
:10334C00017A027995122485900293EFF0E004F053
:10335C00900293E024F9FD900291E0FEC3ED9E14DF
:10336C009002B6F0900292E0AE052E049002B7F0F7
:10337C009002B6E0FF3395E0FED3E49FEE6480F854
:10338C007480984022A3E0FF3395E0FE74942FF5EF
:10339C008274023EF5837420F09002B7E004F09042
:1033AC0002B6E004F080C990028DE0FCA3E0FDA31E
:1033BC00E0FEA3E0FFE4FBFAF9F812113C9002B630
:1033CC0060174015E0FF3395E0FE74942FF582747E
:1033DC00023EF583742DF08013E0FF3395E0FE740C
:1033EC00942FF58274023EF5837420F09002B7E0BE
:1033FC00FF3395E0FE74942FF58274023EF583E45E
:10340C00F0900289E0FEA3E0FFA3E0FCA3E0FD7BCB
:08341C00017A0279940250CC00
:102FA50090036BEEF0A3EFF0A3ECF0A3EDF0A3EB31
:022FB500F0F931
:102FB700E0FF131313541F90037DF0900373E08F0A
:102FC700F0A424FFFDE5F034FFFC90036BE0FEA3C3
:102FD700E0FF2DFBEE3CFAC002C003C006A3E0FCF5
:102FE700A3E0FDE9FB7A0090036DE0F8A3E02BFB7B
:102FF700EA38CB24FFFEEB34FF900492F0A3CEF027
:10300700D006D003D002125689E4900376F0A3F0DD
:1030170090036FE0FF900376E0FCA3E0FDC39F748D
:1030270080F8EC6480984003023137900373E09096
:10303700037CF0A3E0FF7E001214C2900370E0FB54
:10304700A3E0FAA3E02FF9EA3E02311790037CE0F0
:10305700FF14F0EF7003023126E490037AF0A3F037
:1030670090037DE0FFC390037BE09F7480F890039B
:103077007AE06480985076900378E4F0A37408F0BF
:10308700900378E0FEA3E0FFD39400EE6480948081
:10309700404090037EE0FBA3E0FAA3E0F912144856
:1030A700FDEF14FFF8ED088002C313D8FC5401604C
:1030B7000A900374E0FEA3E0FF800474FFFFFE1292
:1030C7005F11900379E024FFF0900378E034FFF07C
:1030D70080AE90037FE475F00112155F90037BE0EB
:1030E70004F0700690037AE004F002306790037DE5
:1030F700E0FFFDA3E0FBA3E0FAA3E0C39DF9EA9498
:1031070000FA90036FE0FEEF8EF0A429F9EA35F09C
:10311700FA90037EEBF0A3EAF0A3E9F002305390B4
:103127000377E004F07006900376E004F0023017AE
:013137002275
:10627700E4FB7D6B7F681263A67B077D197F68123D
:1062870063A6E4FB7D197F68125DC0EF640770F2B7
:0162970022E4
:105936007F647E00126479126277E4FB7D6B7F6878
:105946001263A67B077D197F681263A67B047D1A06
:105956007F681263A67B187D1B7F681263A67B1087
:105966007D1C7F681263A6E4FB7D6A7F681263A6CE
:095976007B027D377F680263A605
:105774007B017A0579389004BE7406F0E4A3F07DC9
:105784003B7F68124E77900538E0FEA3E0FDEDFF05
:105794009003E6EEF0A3EFF090053AE0FEA3E0FDFF
:1057A400EDFF9003E8EEF0A3EFF090053CE0FEA3DC
:0C57B400E0FDEDFF9003EAEEF0A3EFF043
:0157C00022C6
:1057C1007B017A05793E9004BE7406F0E4A3F07D76
:1057D100437F68124E7790053EE0FEA3E0FDEDFFAA
:1057E1009003ECEEF0A3EFF0900540E0FEA3E0FDA6
:1057F100EDFF9003EEEEF0A3EFF0900542E0FEA383
:0C580100E0FDEDFF9003F0EEF0A3EFF0EF
:01580D002278
:0A65C1002D0020002564002566006F
:0560A800F583E493FF05
:1060AD007E08C2A2D2A1C2A5AD061EED6014EF30CE
:1060BD00E704D2A38002C2A3D2A5C2A5EF25E0FFBB
:0460CD0080E6D2A2F5
:0160D10022AC
:1061E7007E06C2A2D2A1C2A5AD061EED6014EF3095
:1061F700E704D2A38002C2A3D2A5C2A5EF25E0FF80
:0462070080E6D2A2B9
:01620B002270
:085FF80054F0C4540F4410FFE3
:106000007E08C2A2C2A1C2A5AD061EED6014EF308B
:10601000E704D2A38002C2A3D2A5C2A5EF25E0FF68
:0460200080E6D2A2A2
:016024002259
:104CFB009004C0EEF0A3EFF0A3EBF0A3EAF0A3E96E
:014D0B00F0B7
:104D0C009004C67406F09004C2E0FBA3E0FAA3E0A2
:104D1C00F99004C6E0F582758300E4804E9004C6D9
:104D2C00E0604D14F09004C0E0FAA3E0FB7C007D41
:104D3C000AFFAE021214D49004C5EDF07C007D0A7B
:104D4C00AF03AE021214D49004C0EEF0A3EFF090B7
:104D5C0004C5E02430FF9004C2E0FBA3E0FAA3E01A
:104D6C00F99004C6E0F582758300EF1214A080ADB3
:014D7C002214
:1048CA00D2A2D2A5C2A07F327E00126479D2A07F82
:1048DA00AE126000E4FF1260007F101260007F4099
:1048EA001260007F811260007F7F1260007FA11238
:1048FA0060007FC81260007FA61260007FA8126065
:10490A00007F3F1260007FD3126000E4FF12600054
:10491A007FD51260007F801260007FD91260007F0D
:10492A00F11260007FDA1260007F121260007FDBF2
:10493A001260007F401260007F201260007F021226
:10494A0060007F8D1260007F141260007FA41260E5
:10495A00007FA61260007FAF126000E4FF125E6A59
:06496A00E4FDFF0264A160
:1064A100AC07ED24B0FF126000EC125FF8EC540F62
:0464B100FF02600086
:025E6A00AC0783
:105E6C00E4FBEBC39408748094805028EB24B0FFBF
:105E7C001260007F011260007F10126000E4FAEAE9
:105E8C00C39480748094805008AF041260AD0A8073
:045E9C00EE0B80CEBB
:015EA00022DF
:1062DA00AA07A9051264A1E924B0FF126000EA1214
:0E62EA005FF8EA540FFF126000AF030260ADD0
:1062F800AB07AA051264A1EA24B0FF126000EB12F2
:0E6308005FF8EB540FFF126000E4FF0260AD7F
:104BDF009004C7EFF0A3EDF0A3EBF0A3EAF0A3E985
:014BEF00F0D5
:104BF000E4A3F0FCA3F09004C9E0FBA3E0FAA3E077
:104C0000F99004CDE0F582758300121461605F2491
:104C1000E09004CCF09004C7E0D3947E748094803C
:104C20004006E4F0A3E004F09004C7E0FFA3E0FD39
:104C30001264A1E4FCECC39406748094805020902C
:104C400004CCE075F006A42486F582E5F03406F580
:104C500083E5822CF582E435831260A80C80D6901F
:0E4C600004C7E02406F09004CDE004F0808844
:014C6E002223
:10451D009004CEEFF0A3EDF0A3EBF0A3EAF0A3E946
:01452D00F09D
:10452E00E4A3F0FCA3F09004D0E0FBA3E0FAA3E038
:10453E00F99004D4E0F582758300121461700302C1
:10454E0045E824E09004D3F09004CEE0D394787440
:10455E008094804006E4F0A3E004F09004CEE0FFE7
:10456E00A3E0FD1264A1E4FCECC394087480948073
:10457E0050209004D3E075F010A42CF582E435F0B1
:10458E00F583E58224AEF582E58334081260A80C2B
:10459E0080D69004CEE0FFA3E004FD1264A1E4FCFB
:1045AE00ECC394087480948050209004D3E075F08E
:1045BE0010A42CF582E435F0F583E58224B6F5825D
:1045CE00E58334081260A80C80D69004CEE024084F
:0A45DE00F09004D4E004F00245342C
:0145E80022B0
:0861C10090046BEFF0A3EDF078
:1061C900AE02AF037B017A04796D124CFB90046B2C
:0E61D900E0FFA3E0FD7B017A04796E024BDF4C
:0E514200900409EFF0A3EDF0A3EAF0A3EBF068
:10515000C3EA64809480502590040BE0FEA3E0FF36
:10516000C3E49FFFE49E90040BF0A3EFF0900409CA
:10517000E0FFA3E0FD7BFF7A6579C1800E90040912
:10518000E0FFA3E0FD7BFF7A6579C3124BDF90045B
:1051900009E02406F090040BE0FEA3E0FF7B017A17
:1051A00004790D124CFB900409E0FFA3E0FD7B01A4
:0751B0007A04790E024BDFC7
:0E40D00090033FEEF0A3EFF0A3ECF0A3EDF0B1
:1040DE00900347E0FFC3740A9F7480F898500374EE
:1040EE000AF0900347E004F0900343E0FCA3E0FDE8
:1040FE00A3E0FEA3E0FFE4FBFAF9F8D31216674043
:10410E00319001D174FFF0A37465F0A374C5F090E3
:10411E000343E0FCA3E0FDA3E0FEA3E0FF9001D487
:10412E001216C10B7A037948121E7E90036AEFF0C5
:10413E0080389003487420F09001D174FFF0A3747E
:10414E0065F0A374C5F0900343E0FCA3E0FDA3E08B
:10415E00FEA3E0FF9001D41216C17B017A037949C8
:10416E00121E7E90036AEFF0801E900347E0FF90D0
:10417E00036AE0FEC39F501574482EF582E43403A3
:10418E00F5837420F090036AE004F080DD74482F0C
:10419E00F582E43403F583E4F090033FA3E0FFA33C
:0C41AE00A3E0FD7B017A037948024BDF9F
:0E3424009002B8EEF0A3EFF0A3ECF0A3EDF0F1
:103432009002C1E0FFC374069F7480F89850037431
:1034420006F09002C0E0FFC3740A9F7480F898509F
:1034520003740AF09002BCE0FCA3E0FDA3E0FEA32B
:10346200E0FFE4FBFAF9F812113C9001D16031401F
:103472002F74FFF0A37465F0A374C8F09002BCE04F
:10348200FCA3E0FDA3E0FEA3E0FF9001D41216C16D
:103492007B017A0279C3121E7E9002C2EFF0803065
:1034A20074FFF0A37465F0A374C8F09002BCE0FC52
:1034B200A3E0FDA3E0FEA3E0FF9001D41216C17BBE
:1034C200017A0279C4121E7E9002C2EFF0E004F08B
:1034D2009002C2E024F9FD9002C0E0FEC3ED9E140A
:1034E2009002E5F09002C1E0AE052E049002E6F0F3
:1034F2009002E5E0FF3395E0FED3E49FEE6480F8AE
:103502007480984022A3E0FF3395E0FE74C32FF548
:103512008274023EF5837420F09002E6E004F0909B
:1035220002E5E004F080C99002BCE0FCA3E0FDA348
:10353200E0FEA3E0FFE4FBFAF9F812113C9002E589
:1035420060174015E0FF3395E0FE74C32FF58274D7
:10355200023EF583742DF08013E0FF3395E0FE7494
:10356200C32FF58274023EF5837420F09002E6E0E8
:10357200FF3395E0FE74C32FF58274023EF583E4B7
:10358200F09002B8A3E0FFA3A3E0FD7B017A0279E9
:04359200C3024BDF46
:1018C200900396ECF0A3EDF0A3EBF0A3EAF0A3E90A
:0918D200F0900394EEF0A3EFF096
:1018DB007E005407FF9003A2EEF0A3EFF070179079
:1018EB000394E0FEA3E07803CEC313CE13D8F9FF25
:1018FB009003A0EE8018900394E0FEA3E07803CE53
:10190B00C313CE13D8F92401FFE43E9003A0F0A338
:10191B00EFF0E490039CF0A3F09003A0E0FEA3E0B3
:10192B00FF90039CE0FCA3E0FDC39FEE6480F8EC0A
:10193B006480984003021E7DE4FF1264A1E4A3F0CF
:10194B00A3F0900396E0FCA3E0FDC390039FE09D02
:10195B0090039EE09C4003021E6CE49003A4F09065
:10196B0003A1E024FFFF9003A0E034FFFE90039C53
:10197B00E0FAA3E0FBC39FEE6480F8EA6480984032
:10198B00159003A2E0FEA3E0FF4E600AEF9401EE78
:10199B0064809480404D9003A4E0FFC007AE02EB3F
:1019AB007803C333CE33CED8F9FF1214C290039809
:1019BB00E0FBA3E0FAA3E02FF9EA3EFA90039EE0E6
:1019CB00FEA3E029F9EA3EFA121448FF90039BE0CC
:1019DB00FEEFD39E40047E0180027E00D0E04E904D
:1019EB0003A4F09003A1E024FFFF9003A0E034FFD9
:1019FB00FE90039CE0FCA3E0FDC39FEE6480F8EC3B
:101A0B0064809840159003A2E0FEA3E0FF4E600AAD
:101A1B00EF9402EE6480948040639003A4E0FFC0D7
:101A2B0007AE04ED7803C333CE33CED8F9FF900362
:101A3B0096E0FCA3E0FD1214C2A3E0FBA3E0FAA323
:101A4B00E02FF9EA3EFA90039EE0FEA3E029F9EAC3
:101A5B003EFA900396E0FEA3E029F9EA3EFA12144F
:101A6B0048FF90039BE0FEEFD39E40047F01800272
:101A7B007F00EF25E0FED0E04E9003A4F09003A191
:101A8B00E024FFFF9003A0E034FFFE90039CE0FCFA
:101A9B00A3E0FDC39FEE6480F8EC64809840159042
:101AAB0003A2E0FEA3E0FF4E600AEF9403EE648016
:101ABB009480406C9003A4E0FFC007AE04ED780364
:101ACB00C333CE33CED8F9FF900396E0FCA3E0FDF1
:101ADB001214C2A3E0FBA3E0FAA3E02FF9EA3EFA4B
:101AEB0090039EE0FEA3E029F9EA3EFA900397E00B
:101AFB0025E0FF900396E033FEE92FF9EA3EFA1258
:101B0B001448FF90039BE0FEEFD39E40047F0180BF
:101B1B00027F00EF25E025E0FED0E04E9003A4F01D
:101B2B009003A1E024FFFF9003A0E034FFFE90039D
:101B3B009CE0FCA3E0FDC39FEE6480F8EC6480980E
:101B4B0040159003A2E0FEA3E0FF4E600AEF940461
:101B5B00EE64809480406A9003A4E0FFC007AE045B
:101B6B00ED7803C333CE33CED8F9FF900396E0FC68
:101B7B00A3E0FD1214C2A3E0FBA3E0FAA3E02FF94C
:101B8B00EA3EFA90039EE0FEA3E029F9EA3EFA90C2
:101B9B000396E0FEA3E0F5828E8374031216FE1209
:101BAB001461FF90039BE0FEEFD39E40047F018006
:101BBB00027F00EF33333354F8FED0E04E9003A492
:101BCB00F09003A1E024FFFF9003A0E034FFFE9010
:101BDB00039CE0FCA3E0FDC39FEE6480F8EC648003
:101BEB009840159003A2E0FEA3E0FF4E600AEF942D
:101BFB0005EE64809480406D9003A4E0FFC007AEB7
:101C0B0004ED7803C333CE33CED8F9FF900396E0BF
:101C1B00FCA3E0FD1214C2A3E0FBA3E0FAA3E02FA8
:101C2B00F9EA3EFA90039EE0FEA3E029F9EA3EFAB8
:101C3B00900396E0FEA3E07802C333CE33CED8F9FF
:101C4B0029F9EA3EFA121448FF90039BE0FEEFD30A
:101C5B009E40047F0180027F00EFC454F0FED0E071
:101C6B004E9003A4F09003A1E024FFFF9003A0E0AB
:101C7B0034FFFE90039CE0FCA3E0FDC39FEE648069
:101C8B00F8EC64809840159003A2E0FEA3E0FF4EB1
:101C9B00600AEF9406EE6480948040699003A4E0A0
:101CAB00FFC007AE04ED7803C333CE33CED8F9FFB4
:101CBB00900396E0FCA3E0FD1214C2A3E0FBA3E0AB
:101CCB00FAA3E02FF9EA3EFA90039EE0FEA3E02987
:101CDB00F9EA3EFA900396E0FEA3E0F5828E837458
:101CEB00051216FE121461FF90039BE0FEEFD39ECC
:101CFB0040047F0180027F00EFC43354E0FED0E04C
:101D0B004E9003A4F09003A1E024FFFF9003A0E00A
:101D1B0034FFFE90039CE0FCA3E0FDC39FEE6480C8
:101D2B00F8EC64809840159003A2E0FEA3E0FF4E10
:101D3B00600AEF9407EE64809480406A9003A4E0FD
:101D4B00FFC007AE04ED7803C333CE33CED8F9FF13
:101D5B00900396E0FCA3E0FD1214C2A3E0FBA3E00A
:101D6B00FAA3E02FF9EA3EFA90039EE0FEA3E029E6
:101D7B00F9EA3EFA900396E0FEA3E0F5828E8374B7
:101D8B00061216FE121461FF90039BE0FEEFD39E2A
:101D9B0040047F0180027F00EFC4333354C0FED078
:101DAB00E04E9003A4F09003A1E024FFFF9003A06A
:101DBB00E034FFFE90039CE0FCA3E0FDC39FEE64C8
:101DCB0080F8EC64809840159003A2E0FEA3E0FF3E
:101DDB004E600AEF9408EE64809480406B9003A4ED
:101DEB00E0FFC007AE04ED7803C333CE33CED8F992
:101DFB00FF900396E0FCA3E0FD1214C2A3E0FBA34B
:101E0B00E0FAA3E02FF9EA3EFA90039EE0FEA3E08E
:101E1B0029F9EA3EFA900396E0FEA3E0F5828E8361
:101E2B0074071216FE121461FF90039BE0FEEFD3B2
:101E3B009E40047F0180027F00EFC4333333548014
:101E4B00FED0E04E9003A4F09003A4E0FF1260AD2F
:101E5B0090039FE004F0700690039EE004F00219DB
:101E6B004D90039DE004F0700690039CE004F0029B
:021E7B00192428
:011E7D002242
:0B444E009003B5EFF0A3EDF0A3EBF03E
:10445900E49003BCF0A3F09003BBE0FFC39003BD5D
:10446900E09F7480F89003BCE064809840030245A3
:104479001CE49003BEF0A3F09003B7E0FF131313FD
:10448900541FFD9003BEE0FAA3E0FBC39D7480F8BE
:10449900EA64809850699003BCA3E08FF0A4FF9070
:1044A90003B5E02FFFA3E02BFD1264A1E49003C044
:1044B900F0A3F09003B8E0FBA3E0FAA3E0F912142B
:1044C90048FF1260AD9003B9E475F00112155F90D1
:1044D90003C1E004F070069003C0E004F0C3900348
:1044E900C1E094109003C0E06480948040C59003BB
:1044F900BFE004F070829003BEE004F002448190B2
:1045090003BDE004F060030244609003BCE004F0E2
:03451900024460F9
:01451C00227C
:1064DC00EF1FAA0670011E4A60087D091DED60F0D1
:0264EC0080FA34
:0164EE00228B
:0B602500C2CCEF4480FF126030AF05DA
:10603000E4FEEEC39408748094805015EF3392FD13
:10604000EF25E0FFC2FFD2FFA2FEE4334FFF0E8038
:01605000E16E
:01605100222C
:0665FB00126025D2CC2243
:10646400C2CCEF4440FF126030E4FF126030EF1200
:05647400148ED2CC22C1
:10629800126025D2CCC2CCE4FF126030AC07E4FF18
:1062A800126030D2CCAF04ED6F60037F01227F0013
:0162B80022C3
:105D430090055FEBF0A3EAF0A3E9F0C2CCEF444087
:105D5300FF126030E4FF126030D2CC7F017E00126C
:105D630064DCC2CCE4FF12603090055FE0FBA3E08B
:105D7300FAA3E0F9EF12148EE4FF126030D2CC22C2
:10617300AB07AA06C3E49BFB74109AFAEBC4F8546A
:106183000FC868FBEAC454F048FAAD03E4FF126297
:0861930098EAFD7F0102629809
:10620C00C2CCE4FF126030AD07ED7D00FCE4FF1260
:10621C006030D2CCAE04EEC4F854F0C868FEEFC4C3
:04622C00540F48FFC4
:01623000224B
:1064B5007B017A0579827F06125D43900582E0644F
:0364C5001C70ED5B
:0164C80022B1
:106575001264B5E4FD7F09126298E4FFFE026173BF
:0E63F500EBF0A3EAF0A3E9F0C2CCEF4440FFC6
:09640300AB07E4FD7F0202580E14
:1063DC00900583EDF0C2CCEF4480FF12640390056E
:0963EC0083E0FF126403D2CC220D
:10636D009005621263F5E4FF126030900562E0FB68
:0D637D00A3E0FAA3E0F9EF12148ED2CC22B7
:055D8300900570EDF039
:105D8800C2CCEF4480FF126403900570E0FF1264F8
:105D980003D2CCC2CCE4FF126403900571EFF0E4A7
:105DA800FF126403D2CC900571E0FF900570E06F9C
:075DB80060037F01227F0060
:015DBF0022C1
:10607D009005651263F5E4FF126403D2CCC2CCE443
:10608D00FF126403900565E0FBA3E0FAA3E0F9EFCE
:0B609D0012148EE4FF126403D2CC2228
:105DFB00900572EEF0A3EFF0C3E49FF074109E9049
:105E0B000572F0A3E0C4F8540FC868FF900572E068
:105E1B00C454F048F0A3EFF0FDE4FF125D8390054E
:085E2B0072E0FD7F01025D83BE
:105CC200E4900574F0A3F0C2CCFF12640390057453
:105CD200E4F0A3EFF0E0F8E4F0E8900574F0E4FFFC
:105CE200126403900574E0F0A3E04FF0D2CC90056B
:105CF20074E0C4F854F0C868FEA3E0C4540F48FF2F
:015D0200227E
:1062B9007B017A0579847F0612607D900584E0FB75
:1062C900E4FDFCFFFE124FDF900584E0641C70E0E2
:0162D90022A2
:106231009004ED7422F0E4A3F0A3F07B217D207F94
:1062410002125B731262B9E4FD7F09125D83E4FF00
:04625100FE025DFBF1
:1064EF009004E61216CD0001C2007B117D107F03D0
:0364FF00023596CD
:10481E009004D5EBF0A3EAF0A3E9F0A38062E47F65
:10482E001EFEFDFC9004D8E0F8A3E0F9A3E0FAA385
:10483E00E0FBD312167D404D308402804B9004D5A0
:10484E00E0FBA3E0FAA3E0F99004FAE4F0A3741EEF
:10485E00F07F031260FB9004D6E475F01E12155F14
:10486E009004D8E0FCA3E0FDA3E0FEA3E0C3941EF9
:10487E00FFEE9400FEED9400FDEC9400FC9004D845
:10488E001216C1809930840F9004D8E0FCA3E0FD8D
:10489E00A3E0FEA3E0FF229004D5E0FBA3E0FAA381
:1048AE00E0F9A3A3A3E0FFA3E09004FACFF0A3EFF7
:0C48BE00F07F031260FBE4FFFEFDFC2213
:0E4B4E009004DCEBF0A3EAF0A3E9F0A3EDF095
:104B5C0074FFA3F0A3F0E4A3F09004DFE0FF900453
:104B6C00E2E0FEC39F50639004DCE0FBA3E0FAA3F9
:104B7C00E0F98E82758300121461FF9004E0E0F07E
:104B8C00A3E06FF0E4FDEDC3940874809480503280
:104B9C009004E0E0FEA3E0FF30E019EEC313FEEF5B
:104BAC0013FFEE64A0FEEF6401FF9004E0EEF0A3AF
:104BBC00EFF0800B9004E0E0C313F0A3E013F00DD2
:104BCC0080C49004E2E004F0808F9004E0E0FEA347
:024BDC00E0FFF8
:014BDE0022B4
:10497000900416ECF0A3EDF0A3EAF0A3EBF09004A2
:0649800014EEF0A3EFF0BD
:10498600E4FC90041CE0FBA3E0FAA3E0F9EF1214A8
:104996008E900414E0FEEEFF90041CE0FBA3E0FA08
:1049A600A3E0F9900001EF1214A0900416A3E09082
:1049B60000021214A0900416E0FEEE9000031214FA
:1049C600A0900418A3E09000041214A0900418E02C
:1049D600FEEE9000051214A090041AA3E0900006C3
:1049E6001214A090041AE0FEEE9000071214A07DA7
:1049F60008124B4E90041CE0FBA3E0FAA3E0F990EA
:0D4A06000008EF1214A0EE9000090214A0A9
:102DEF00900200E0FBA3E475F004121575A9F0FA48
:102DFF001216A19002251216C1900225E0FCA3E045
:102E0F00FDA3E0FEA3E0FF7B017A027904E49003C7
:062E1F0088F0A37410F01E
:102E25009003811216C1900385EBF0A3EAF0A3E9A4
:012E3500F0AC
:102E3600E4900392F0A3F0900388E07003022EF46E
:102E4600900381E0FCA3E0FDA3E0FEA3E0FF900376
:102E56008A1216C190038AE0FCA3E0FDA3E0FEA35C
:102E6600E0FFEC33501090038AA3A3A3E012165997
:102E760090038A1216C1900389E0FBE4FAF9F8A3DD
:102E8600E0FCA3E0FDA3E0FEA3E0FF125BB8EB24A9
:102E960030FF900385E0FBA3E0FAA3E0F9EF1214FC
:102EA6008E90038AE0FCA3E0FDA3E0FEA3E0FFC052
:102EB60007900389E0FBE4FAF9F8D007125BB890B3
:102EC600038A1216C1900393E004F090038AE0FC93
:102ED600A3E0FDA3E0FEA3E0FFEC4D4E4F7003021E
:102EE6002F9F900386E475F00112155F808890038A
:102EF60081E0FCA3E0FDA3E0FEA3E0FF90038E12B9
:102F060016C1900389E0FBE4FAF9F890038EE0FC21
:102F1600A3E0FDA3E0FEA3E0FF1215C7AF039003F5
:102F260092EFF0D3740A9F7480F8985006E0243725
:102F3600F08007900392E02430F0900392E0FF9037
:102F46000385E0FBA3E0FAA3E0F9EF12148E9003E9
:102F56008EE0FCA3E0FDA3E0FEA3E0FFC007900324
:102F660089E0FBE4FAF9F8D0071215C790038E1230
:102F760016C1900393E004F090038EE0FCA3E0FDFD
:102F8600A3E0FEA3E0FFEC4D4E4F600D900386E4F8
:0E2F960075F00112155F022F08900393E0FF03
:012FA400220A
:103DFB00900229EFF07B017A027904E0FFE4FCFDED
:013E0B00FEB8
:0F3E0C009003F2EBF0A3EAF0A3E9F0A31216C1C2
:103E1B009003F91216CD00000000E47B02FAF9F8CA
:103E2B009003F5E0FCA3E0FDA3E0FEA3E0FF121579
:103E3B00C79003F9E0F8A3E0F9A3E0FAA3E0FBC312
:103E4B0012167D4003023EF39003F5A3A3E0FEA3FD
:103E5B00E024FFFBEE34FFFAA3A3A3E0FEA3E0FFF5
:103E6B00C3EB9FFDEA9EFC9003F2E0FBA3E0FAA3F9
:103E7B00E0F98D828C831214619003FDF08F828E9A
:103E8B0083121461FFC0079003F5A3A3E0FEA3E028
:103E9B0024FFFBEE34FFFAA3A3A3E0FEA3E0FDACEB
:103EAB0006C3EB9DFFEA9CFE9003F2E0FBA3E0FA56
:103EBB008F828E83D0E01214A09003FDE0FFEF8D74
:103ECB00828C831214A09003F9E0FCA3E0FDA3E025
:103EDB00FEA3E02401FFE43EFEE43DFDE43CFC9048
:083EEB0003F91216C1023E2585
:013EF30022AC
:0B1E7E009001CEEBF0A3EAF0A3E9F026
:101E89009001FC1216CD000000009002007401F0D0
:101E9900A37401F0A374D4F09001D1E0FBA3E0FA9C
:0B1EA900A3E0F91214487003022408A3
:101EB400900203F0642560030223B49001D1A3E4EB
:101EC40075F00112155FA9F0FA12144812174F2386
:101ED40080251F8246225A581EFB631F17641F82E7
:101EE400661F176921DF6F23277022AE732159758E
:071EF400225A78000023FBD5
:101EFB00900200E0FBA3E475F004121575A9F0FA4B
:091F0B001216A1900204EFF0E0AF
:031F14000223C2E3
:101F1700900200E0FBA3E475F004121575A9F0FA2E
:101F27001216A19002251216C1900225E0FCA3E02B
:101F3700FDA3E0FEA3E0FF7B017A0279049003880A
:101F47007401F0A3740AF0122E25900229EFF09085
:101F57000225E0FCA3A3A3EC335014A3E02404F56B
:101F670082E43402F583742DF0900229E004F07BBB
:081F7700017A027904900229AD
:031F7F0002219D9F
:101F8200900200E0FBA3E475F004121575A9F0FAC3
:101F92001216A19002251216C1900225E0FCA3E0C0
:101FA200FDA3E0FEA3E0FF1211F37B017A027904A4
:101FB2009003887401F0A3740AF0122E259002296E
:101FC200EFF0E4FFFEFDFC900225E0F8A3E0F9A3A8
:101FD200E0FAA3E0FB12113C5016900229E024041F
:101FE200F582E43402F583742DF0900229E004F0C6
:101FF2007B017A027904900229123E06900229E0BE
:10200200FF7E009001CEE0FBA3E0FAA3E0F8AC0271
:10201200AD037B017A027904121841900229E0FF94
:10202200FD9001CFE48DF012155F9001FCE0F8A362
:10203200E0F9A3E0FAA3E0FBE4FCFDFEEB2FFFEEE8
:102042003AFEED39FDEC38FC9001FC1216C190020B
:1020520025E0FCA3E0FDA3E0FEA3E0FF1211F3ECF8
:102062001211B5A804A905AA06AB07900225E0FC47
:10207200A3E0FDA3E0FEA3E0FF120EA17B007A2401
:1020820079747849120F969002251216C190022592
:10209200E0FCA3E0FDA3E0FEA3E0FFEC4D4E4F60A9
:1020A20024900225A3A3A3E01211F37B017A027903
:1020B200049003887401F0A3740AF0122E25900292
:1020C20029EFF080209002097430F0900208F0901D
:1020D2000207F0900206F0900205F0900204F090E0
:1020E20002297406F0900229E0FFFDD374069D7464
:1020F20080F898401574042FF582E43402F5837455
:1021020030F0900229E004F080DB900229E0240400
:10211200F582E43402F583742EF0900229E0041271
:102122003DFF900229E0FF7E009001CEE0FBA3E09C
:10213200FAA3E0F8AC02AD037B017A02790412182B
:10214200419001FCE0F8A3E0F9A3E0FAA3E0FB90E0
:072152000229E0FF02229CBC
:10215900900200E0FBA3E475F004121575A9F0FAEA
:102169001216A19002251216C1900225E0FCA3E0E7
:10217900FDA3E0FEA3E0FF7B017A027904E490036A
:1021890088F0A3740AF0122E25900229EFF07B0142
:102199007A027904123E06900229E0FF7E0090013E
:1021A900CEE0FBA3E0FAA3E0F8AC02AD037B017A31
:1021B900027904121841900229E0FFFD9001CFE451
:1021C9008DF012155F9001FCE0F8A3E0F9A3E0FAA5
:0321D900A3E0FB85
:0321DC0002229C40
:1021DF00900200E0FBA3E475F004121575A9F0FA64
:1021EF001216A19002251216C1900225E0FCA3E061
:1021FF00FDA3E0FEA3E0FF7B017A027904E49003E4
:10220F0088F0A37408F0122E25123DFB900229E0EE
:10221F00FF7E009001CEE0FBA3E0FAA3E0F8AC0252
:10222F00AD037B017A027904121841900229E0FF75
:10223F00FD9001CFE48DF012155F9001FCE0F8A343
:08224F00E0F9A3E0FAA3E0FBB3
:0322570002229CC4
:10225A00122DEF123DFB900229E0FF7E009001CE85
:10226A00E0FBA3E0FAA3E0F8AC02AD037B017A023B
:10227A007904121841900229E0FFFD9001CFE48D04
:10228A00F012155F9001FCE0F8A3E0F9A3E0FAA3CD
:10229A00E0FBE4FCFDFEEB2FFFEE3AFEED39FDEC30
:0122AA0038FB
:0322AB000223F417
:1022AE00900200E0FBA3E475F003121575A9F0FA95
:1022BE0012172F900204EBF0A3EAF0A3E9F09002BC
:1022CE0004E0FBA3E0FAA3E0F91214487003022322
:1022DE00FB121448FF9001CEE0FBA3E0FAA3E0F955
:1022EE00EF12148E9001CFE475F00112155F90017C
:1022FE00FCE0FCA3E0FDA3E0FEA3E02401FFE43E2E
:10230E00FEE43DFDE43CFC9001FC1216C19002057A
:09231E00E475F00112155F80A5C1
:10232700122DEF900229EFF07B017A0279047F08E2
:102337007E007D007C00123E0C9001CEE0FBA3E006
:10234700FAA3E0F8AC02AD037B017A0279047E00C0
:102357007F081218419001CFE475F00812155F90BD
:1023670001FCE0FCA3E0FDA3E0FEA3E02408FFE4FA
:072377003EFEE43DFDE43CE5
:10237E0080749001CEE0FBA3E0FAA3E0F97425127D
:10238E00148E9001CFE475F00112155F9001FCE000
:10239E00FCA3E0FDA3E0FEA3E02401FFE43EFEE487
:1023AE003DFDE43C80409001D1E0FBA3E0FAA3E0C8
:1023BE00F9121448FF9001CEE0FBA3E0FAA3E0F976
:1023CE00EF12148E9001CFE475F00112155F90019B
:1023DE00FCE0FCA3E0FDA3E0FEA3E02401FFE43E4D
:1023EE00FEE43DFDE43CFC9001FC1216C19001D2CE
:0723FE00E475F00112155F08
:10240500021EA1900200E4F0A3F0A3F09001FCE00D
:0A241500FCA3E0FDA3E0FEA3E0FF3E
:01241F00229A
:030023000253C5C0
:1053C500C0E0C083C08263A201C083C082C0D07523
:0653D500D000C005C00776
:1053DB00309907C2999001CAE4F030982AC298AF6D
:1053EB0099EFFD647F6005ED64807016900585E094
:1053FB00FF04F0D3EF941474809480400A75C76057
:07540B008005900585E4F027
:10541200D007D005D0D0D082D08363A201D082D071
:0454220083D0E03221
:03004300025F3A1F
:105F3A00C0E0C083C08263A201C083C082E59A30F8
:105F4A00E108539AFD9001CBE4F0E59A30E003535F
:105F5A009AFED082D08363A201D082D083D0E0326D
:03008B00025F6AA7
:105F6A00C0E0C083C08263A201C083C082E5AC30B6
:105F7A00E10853ACFD9001CCE4F0E5AC30E003530A
:105F8A00ACFED082D08363A201D082D083D0E0322B
:03009300025F9A6F
:105F9A00C0E0C083C08263A201C083C082E58430AE
:105FAA00E1085384FD9001CDE4F0E58430E0035329
:105FBA0084FED082D08363A201D082D083D0E03223
:03003B00024A1363
:104A1300C0E0C083C08263A201C083C082C0D075DE
:104A2300D000C006C00730D822C2D89003ADE0FE44
:104A3300A3E0F5EAEEF5FA9003A5E0FEA3E0FF900C
:104A430003AEE02FF09003ADE03EF030D922C2D99F
:104A53009003AFE0FEA3E0F5EBEEF5FB9003A7E0D8
:104A6300FEA3E0FF9003B0E02FF09003AFE03EF031
:104A730030DA22C2DA9003B1E0FEA3E0F5ECEEF502
:104A8300FC9003A9E0FEA3E0FF9003B2E02FF090B7
:104A930003B1E03EF030DB02C2DBD007D006D0D05A
:0E4AA300D082D08363A201D082D083D0E032D3
:03000300020042B6
:01004200328B
:0300130002005098
:01005000327D
:0300530002005157
:01005100327C
:03005B000200524E
:01005200327B
:0300830002005622
:010056003277
:105FCA001200201255E59004E61216CD0001C20017
:105FDA007B0B7D0A7F0112359612003EB2CA7DEE16
:0E5FEA007F011258687F647E0012647980EE99
:100E9E0002125FE86480F8E933E83360110460F011
:100EAE00ED33EC337009E8FCE9FDEAFEEBFF2204BA
:100EBE0060DED3EB9FEA9EE99DE8C2E78CF0C2F7B5
:100ECE0095F0400CE8CCF8E9CDF9EACEFAEBCFFB81
:100EDE0012122A85D0F05804700320D5B3E804709E
:100EEE00075002B2D502126992D5EC0460F7E4CC39
:100EFE00C0E0C398F8603B94186008400DD0E0FB4A
:100F0E00021241E4FBFAC9FC8028E830E406E4C989
:100F1E00FBE4CAFCE830E305E4C9CACBFCE854079D
:100F2E006010F8C3E913F9EA13FAEB13FBEC13FCA8
:100F3E00D8F130F52FC3E49CFCEF9BFFEE9AFEED4B
:100F4E0099FDD0E0FBEF4E4D4C701222DB030212E6
:100F5E0066EC2CFCEF33FFEE33FEED33FDED30E7A8
:100F6E00EB021241EF2BFFEE3AFEED39FDD0E0FB26
:100F7E0050130BBB0003021269ED13FDEE13FEEFCF
:080F8E0013FFEC13FC021241F9
:100F9600EC4D6011E8497017ED33EC3304600DE455
:100FA600FCFFFEFD22E933E8330470F802125F12FB
:100FB600122A58046009E4CC2481500628500902FC
:100FC6001269284003021266C0E0EB4A7044B980F9
:100FD60006D0E0FB021255EF4E701CBD8008EBFFF9
:100FE600EAFEE9FD80EBE98DF0A4FEE5F002107F54
:100FF600E9CDF9EAFEEBFFEF89F0A4FCE5F0CE8936
:10100600F0A42EFFE435F0CD89F0A42DFEE435F0F2
:101016008067EF4E7005BD80D780C3EF8BF0A4AC20
:10102600F0EE8BF0A42CFCE435F0F8EF8AF0A42C5B
:10103600E5F038FCE433CB8DF0A42CFCE5F03BF86E
:10104600EE8AF0A42CFCE5F038F8E433CF89F0A45E
:101056002CFCE5F038CF3400CE89F0A42FFFE5F064
:101066003EFEE433C98DF0A42EFEE5F039CD8AF0BC
:10107600A42FFFE5F03EFEE43DFD33D0E0FB500734
:101086000BBB000F021269EC2CFCEF33FFEE33FEB4
:06109600ED33FD021241E2
:10109C00021269EC5D046005E85904700302125FEA
:1010AC0012122A580460F6EC4860F2EC7004FDFE53
:1010BC00FF22C860DB2481C85009C3986002500627
:1010CC000212669850CAF582E9294B4A7005AB8228
:1010DC0002125575F0007C1A7880C3EF9BEE9AEDE6
:1010EC0099400DC3EF9BFFEE9AFEED99FDE842F09F
:1010FC00DC23ACF0D0E0FFD0E0FED0E0FDAB8220F2
:10110C00E7101BEB60BAEC2CFCEF33FFEE33FEED7B
:10111C0033FD021241E803F830E705C0F075F0002A
:10112C00EF2FFFEE33FEED33FD40B830E7C280AA5F
:10113C0074F8CC6480CCC86480C8F58204604FC35A
:10114C00EB9FF5F0EA9E42F0E99D42F0E89C45F0F9
:10115C00603C501DE5825FFFE582D313CB5BCBF483
:10116C002B5582FB50280ABA002409B900200880AC
:10117C001DE5825BFBE582D313CF5FCFF4C3132F46
:10118C005582FF50090EBE00050DBD00010CC3EBCE
:10119C009FF5F0EA9E42F0E99D42F0E89C45F06034
:0911AC0007CC4820E701B3EC2256
:1011B50075F020800E75F010800575F0087D007EB5
:1011C500007F003392D530D503121659EC33401009
:1011D500EF33FFEE33FEED33FDEC33FCD5F0ED22BE
:0E11E500E5F0247EA2D513CC92E7CDCEFF22FA
:1011F300EDD2E7CD33EC3392D524814006E4FFFEF4
:10120300FDFC22FCE4CFCECDCC24E0501174FF8052
:10121300EDC3CC13CCCD13CDCE13CECF13CF0470EF
:07122300F030D5DE02165980
:10242000E508242DF582E43402F583E005082290C6
:10243000022A30070390022DE475F00112170F02F3
:1024400014482000E97F2ED2008018EF540F24900A
:10245000D43440D4FF30040BEF24BFB41A0050032F
:102460002461FFE50960021509050CE50C70020501
:102470000B30070E90022AE475F00112170FEF02DD
:10248000148E0265147403D2078003E4C207F508B2
:1024900090022A121726E4F509F50BF50CE5096000
:1024A000077F2012246380F5750AFFC201C200C2B3
:1024B00002C203C205C206C20812242FFF700D30EB
:1024C00007057F00122474AF0CAE0B22B4255FC247
:1024D000D5C20412242FFF24D0B40A00501A75F07C
:1024E0000A780930D50508B6FF0106C6A426F620ED
:1024F000D5047002D20380D924CFB41A00EF50045F
:10250000C2E5D204022766D20180C6D20080C0D2C2
:102510000280BCD2D580BAD20580B47F2012246359
:102520002002077401B5090040F1122420FF122493
:102530006302249DD208D2068095122420FB122427
:1025400020FA122420F94A4B700679647A287BFF1E
:1025500020022EE509602A7E008E82758300121407
:102560006160060EEE650A70F0C2D5EBC0E0EAC00D
:10257000E0E9C0E0EE1227C7D0E0F9D0E0FAD0E001
:10258000FB121448FF60AAEBC0E0EAC0E0E9C0E03B
:10259000122463D0E02401F9D0E03400FAD0E0FB4B
:1025A000E50A0460DCD50AD98087D20280A212270E
:1025B000A960F7E50A700104121274A90A600DE51A
:1025C0000A600914F50A122851EF60F3EA30E702B5
:1025D000F404C3995079EAF4250A0430E701E404CD
:1025E000F50A800D1227A960C1EA050A250A121210
:1025F00074EA900259F030E701E4250A04D50A0490
:10260000200501141227C7E4C0E012285190025996
:10261000E0601320E70714F012244B802204F0D06E
:10262000E014C0E07F0012244BE50A600712244248
:10263000150A800B300503122442D0E002249DD0FD
:10264000E00480C41227A9609EE50A041212749067
:102650000259EAF0E50A2005026001042404122769
:01266000C7B2
:1026610074FF04C0E012285112244BE50A20050230
:102671006003122442D0E0B50AE87F451224559048
:102681000259E07F2B30E7047F2DF404C0E01224CF
:1026910063D0E075F00A84C0F012244CD0E012241B
:1026A1004C02249D791080027908C206C208800874
:1026B100D2D5790A8004790AC2D5E50A047002F5F7
:1026C1000AE4FAFDFEFF122420FC7B08200113120C
:1026D1002420FD7B1030000A122420FE122420FF4A
:1026E1007B20EC3382D592D55013C3E43000069F92
:1026F100FFE49EFEE42001039DFDE49CFCE4CBF895
:10270100C201EC700CCFCECDCCE824F8F870F38088
:1027110017C3EF33FFEE33FEED33FDEC33FCEB3348
:10272100FB994002FB0FD8E9EB300105F8D0E0C47A
:1027310048B201C0E00AEC4D4E4F78207B0070C2D8
:10274100EAB50A0040BCC0E01227C9D0F0D0E020B1
:102751000104C4C0E0C4B201C0F012244CD0F0D5D1
:10276100F0EB02249D12174F253A5326A558250B4D
:102771004C25074226A94F26B14426B149252043BD
:1027810026B75525E44626444525AE4728845025DD
:102791000F2D25132E25362B251723253420286DA3
:1027A1002A24CF480000252EE50AB4FF03750A0646
:1027B100122420FC122420FD122420FE122420FFCA
:1027C1009002520212B1790AA2D5200314300509F0
:1027D100B910020404B9080104A2D520060250016F
:1027E100042002689202B509005034C0E07F203015
:1027F10003197F30A20272067205500F122820C2FF
:1028010002C206C205C2087F30800F300503E9C04D
:10281100E0122463300503D0E0F9D0E0B509CC30F3
:1028210005177F30B9100C1224637F583004077FDD
:10283100788003B908031224633002057F2D022436
:10284100637F202008F87F2B2006F322920280CF9D
:102851007F00B40700500B2452F582E43402F58363
:10286100E0FF22286E756C6C2900D2011224203001
:1028710001F8C201780930D50108F60224CF2D50A4
:102881004349581224202403B405004001E4902850
:102891007F93122454743A122454D203750904020A
:0228A10026A56A
:10122A00E9D2E7C933E833F892D5EDD2E7CD33EC0A
:07123A0033FC5002B2D52283
:10124100EC30E7100FBF000C0EBE00080DBD00040E
:101251000BEB6014A2D5EB13FCED92E7FD2274FFBA
:10126100FCFDFEFF22E480F8A2D574FF13FC7D8013
:03127100E480EF27
:10127400F920E73624F950037907E4F42402FBE566
:1012840082158270021583DBF6E024FB501BE960B3
:1012940014E4F0E582158270021583E004F0B40AC8
:0D12A40008E4F0D9EE7401F00A22C2D52250
:1012B100ED33EC3392D5FA602AB4FF33EDC2E77B0C
:1012C100FF60067A1279D6E4227A1279DF20D504FA
:1012D1007A1279DA224E614E002B494E46002D4991
:1012E1004E4600E47A08F0A3DAFC7B00740722C0C2
:1012F10083C082ECC0E0EDC0E0EEC0E0EFC0E0EA08
:1013010075F010A4CAABF075F04DA42BFBE435F0D9
:10131100FCEA2410FAEB34C5FBEC34D9FCEDC2E74E
:10132100FF75F056A4F42411C5F0F434C58FF0A470
:101331002AE5F03BE43CF020E7141213E6D0E0FF8D
:10134100D0E0FED0E0FDD0E0FC12109F8014F40448
:101351001213E6D0E0FFD0E0FED0E0FDD0E0FC12B9
:101361000F96D082D083E0FAEDD2E7CD33EC33246F
:1013710082FBE4C3CF33CFCE33CECD33CD33DBF3DA
:101381007B0775F00A846004F0A31B0AE5F0F0A363
:101391008FF0740AA4FFACF08EF0740AA42CFEAC9A
:1013A100F050010C8DF0740AA42CFDE435F0F0A38B
:0513B100DBDE740722E1
:1013B6003F8000004120000042C80000447A00003F
:1013C600461C400047C35000497424004B189680C1
:1013D6004CBEBC205A0E1BCA6753C21C749DC5AEB8
:1013E600FB60065407601C2323121414EB54386068
:1013F6000912140012140F120F96ECF8EDF9EEFA1A
:10140600EFCB22EB12140F80F1543803241C9013F7
:10141600B6FE93FC0EEE93FD0EEE930ECE93FF22D8
:03000000024C6F40
:0C4C6F00787FE4F6D8FD758121024CB678
:10142600C2D530F707B2D563F0FF05F030E70CB24E
:10143600D5F4048463F0FF05F080018430D502F40E
:0214460004227E
:10144800BB010689828A83E0225002E722BBFE02A2
:09145800E32289828A83E49322D5
:10146100BB010CE58229F582E5833AF583E0225040
:1014710006E92582F8E622BBFE06E92582F8E2228A
:0D148100E58229F582E5833AF583E49322A4
:10148E00BB010689828A83F0225002F722BBFE013D
:02149E00F32237
:1014A000F8BB010DE58229F582E5833AF583E8F082
:1014B000225006E92582C8F622BBFE05E92582C82E
:0214C000F22216
:1014C200EF8DF0A4A8F0CF8CF0A428CE8DF0A42E3E
:0214D200FE22F8
:1014D400BC000BBE0029EF8DF084FFADF022E4CCFC
:1014E400F875F008EF2FFFEE33FEEC33FCEE9DECC5
:1014F400984005FCEE9DFE0FD5F0E9E4CEFD22ED0B
:10150400F8F5F0EE8420D21CFEADF075F008EF2F54
:10151400FFED33FD4007985006D5F0F222C398FD45
:051524000FD5F0EA22E2
:10152900C2D5EC30E709B2D5E4C39DFDE49CFCEEDD
:1015390030E715B2D5E4C39FFFE49EFE1214D4C36D
:10154900E49DFDE49CFC80031214D430D507C3E468
:061559009FFFE49EFE224C
:10155F00C5F0F8A3E028F0C5F0F8E5821582700217
:06156F001583E038F022B4
:10157500A3F8E0C5F025F0F0E58215827002158329
:06158500E0C838F0E82286
:10158B0075F008758200EF2FFFEE33FECD33CDCC17
:10159B0033CCC58233C5829BED9AEC99E58298409A
:1015AB000CF582EE9BFEED9AFDEC99FC0FD5F0D677
:1015BB00E4CEFBE4CDFAE4CCF9A88222B800C1B9A1
:1015CB000059BA002DEC8BF084CFCECDFCE5F0CBDF
:1015DB00F97818EF2FFFEE33FEED33FDEC33FCEB18
:1015EB0033FB10D703994004EB99FB0FD8E5E4F9D3
:1015FB00FA227818EF2FFFEE33FEED33FDEC33FCC0
:10160B00C933C910D7059BE99A4007EC9BFCE99AB3
:10161B00F90FD8E0E4C9FAE4CCFB2275F010EF2FF8
:10162B00FFEE33FEED33FDCC33CCC833C810D707F8
:10163B009BEC9AE899400AED9BFDEC9AFCE899F833
:0E164B000FD5F0DAE4CDFBE4CCFAE4C8F922C6
:105BB800C2D5E830E70FB2D5E4C39BFBE49AFAE418
:105BC80099F9E498F8EC30E717B2D5125BEE1215A4
:105BD800C7E4C39BFBE49AFAE499F9E498F88003D4
:105BE8001215C730D50DE4C39FFFE49EFEE49DFD6A
:045BF800E49CFC220B
:0E165900C3E49FFFE49EFEE49DFDE49CFC22A2
:10166700EB9FF5F0EA9E42F0E99D42F0EC6480C8FA
:0616770064809845F0229A
:10167D00EB9FF5F0EA9E42F0E99D42F0E89C45F0C3
:01168D00223A
:10168E00E8600FECC313FCED13FDEE13FEEF13FF3A
:03169E00D8F1225E
:1016A100BB010789828A830218735005E9F8021881
:1016B10067BBFE05E9F802187F89828A8302188BCD
:0C16C100ECF0A3EDF0A3EEF0A3EFF0229C
:1016CD00A8828583F0D083D0821216E41216E4121C
:1016DD0016E41216E4E473E493A3C583C5F0C58341
:1016ED00C8C582C8F0A3C583C5F0C583C8C582C867
:0116FD0022CA
:1016FE00F5F0C582A4C582C5F0C583A42583F58304
:01170E0022B8
:10170F00F8E0FBA3A3E0F925F0F0E5821582700263
:07171F001583E0FA38F02207
:09172600EBF0A3EAF0A3E9F022C4
:10172F00BB010789828A830218A45005E9F80218C1
:10173F009BBBFE05E9F80218AD89828A830218B6B1
:10174F00D083D082F8E4937012740193700DA3A329
:10175F0093F8740193F5828883E47374029368603D
:06176F00EFA3A3A380DF3D
:10177500E709F608DFFA8046E709F208DFFA803E56
:1017850088828C83E709F0A3DFFA8032E309F60843
:10179500DFFA8076E309F208DFFA806E88828C83AF
:1017A500E309F0A3DFFA806289828A83E0A3F60861
:1017B500DFFA805689828A83E0A3F208DFFA804A3D
:1017C50080D280FA80C680D4806580F28031801016
:1017D50080A680EA809A80A880DA80E280CA80317B
:1017E50089828A8363A20188828C8363A201E49340
:1017F500A363A201F0A363A201DFF3DEF1800B89ED
:10180500828A83E493A3F608DFF9ECFAA9F0EDFBED
:101815002289828A8363A20188828C8363A201E084
:10182500A363A201F0A363A201DFF4DEF280DB89EA
:10183500828A83E493A3F208DFF980CE88F0EF6013
:10184500010E4E60C588F0ED2402B4040050BBF5CE
:1018550082EB2402B4040050B12323458223901760
:02186500C57349
:104C7B00025FCAE493A3F8E493A34003F68001F226
:104C8B0008DFF48029E493A3F85407240CC8C3333A
:104C9B00C4540F4420C8834004F456800146F6DF09
:104CAB00E4800B010204081020408090638AE47EAC
:104CBB00019360BCA3FF543F30E509541FFEE493FE
:104CCB00A360010ECF54C025E060A840B8E493A3C5
:104CDB00FAE493A3F8E493A3C8C582C8CAC583CAF0
:104CEB00F0A3C8C582C8CAC583CADFE9DEE780BEA8
:0163A50000F7
:0C186700E6FC08E6FD08E6FE08E6FF22AD
:0C187300E0FCA3E0FDA3E0FEA3E0FF22E8
:0C187F00E2FC08E2FD08E2FE08E2FF22A5
:10188B00E493FC740193FD740293FE740393FF22A3
:09189B00E6FB08E6FA08E6F92272
:0918A400E0FBA3E0FAA3E0F92245
:0918AD00E2FB08E2FA08E2F9226C
:0C18B600E493FB740193FA740293F9228E
:00000001FF
