:10000000020D4202000CC2AF22D2AF223232323293
:0100100032BD
:0300130002000DDB
:10002300020E98AB07AA06EB1BAE0270011A4E60D4
:0700330005120FC380F1224A
:03003B00020DCEE5
:0300430002005E5A
:0300530002000E9A
:10005B0002000FC0E0C083C082E59A30E108539ADA
:10006B00FD9001CBE4F0E59A30E003539AFED08289
:05007B00D083D0E0324B
:0300830002001068
:03008B00020F7FE2
:10009300020FA1020457E86480F8E933E8336011E2
:1000A3000460F0ED33EC337009E8FCE9FDEAFEEBA4
:1000B300FF220460DED3EB9FEA9EE99DE8C2E78C52
:1000C300F0C2F795F0400CE8CCF8E9CDF9EACEFAA6
:1000D300EBCFFB12042285D0F05804700320D5B374
:1000E300E80470075002B2D502046192D5EC0460B3
:1000F300F7E4CCC0E0C398F8603B94186008400D67
:10010300D0E0FB020439E4FBFAC9FC8028E830E4C0
:1001130006E4C9FBE4CAFCE830E305E4C9CACBFC46
:10012300E854076010F8C3E913F9EA13FAEB13FB79
:10013300EC13FCD8F130F52FC3E49CFCEF9BFFEEEE
:100143009AFEED99FDD0E0FBEF4E4D4C701222DB91
:100153000302045EEC2CFCEF33FFEE33FEED33FDC4
:10016300ED30E7EB020439EF2BFFEE3AFEED39FDFC
:10017300D0E0FB50130BBB0003020461ED13FDEE53
:1001830013FEEF13FFEC13FC020439EC4D6011E88E
:10019300497017ED33EC3304600DE4FCFFFEFD22E0
:1001A300E933E8330470F802045712042258046058
:1001B30009E4CC2481500628500902046128400335
:1001C30002045EC0E0EB4A7044B98006D0E0FB0253
:1001D300044DEF4E701CBD8008EBFFEAFEE9FD8085
:1001E300EBE98DF0A4FEE5F0020277E9CDF9EAFE32
:1001F300EBFFEF89F0A4FCE5F0CE89F0A42EFFE439
:1002030035F0CD89F0A42DFEE435F08067EF4E7014
:1002130005BD80D780C3EF8BF0A4ACF0EE8BF0A4C8
:100223002CFCE435F0F8EF8AF0A42CE5F038FCE47C
:1002330033CB8DF0A42CFCE5F03BF8EE8AF0A42C34
:10024300FCE5F038F8E433CF89F0A42CFCE5F03872
:10025300CF3400CE89F0A42FFFE5F03EFEE433C98E
:100263008DF0A42EFEE5F039CD8AF0A42FFFE5F042
:100273003EFEE43DFD33D0E0FB50070BBB000F0215
:100283000461EC2CFCEF33FFEE33FEED33FD02048F
:1002930039020461EC5D046005E85904700302044B
:1002A30057120422580460F6EC4860F2EC7004FD27
:1002B300FEFF22C860DB2481C85009C39860025046
:1002C3000602045E9850CAF582E9294B4A7005ABD1
:1002D3008202044D75F0007C1A7880C3EF9BEE9A7E
:1002E300ED99400DC3EF9BFFEE9AFEED99FDE842B9
:1002F300F0DC23ACF0D0E0FFD0E0FED0E0FDAB8239
:1003030020E7101BEB60BAEC2CFCEF33FFEE33FE5F
:10031300ED33FD020439E803F830E705C0F075F06A
:1003230000EF2FFFEE33FEED33FD40B830E7C28020
:10033300AA74F8CC6480CCC86480C8F58204604F8A
:10034300C3EB9FF5F0EA9E42F0E99D42F0E89C453D
:10035300F0603C501DE5825FFFE582D313CB5BCB9E
:10036300F42B5582FB50280ABA002409B90020084F
:10037300801DE5825BFBE582D313CF5FCFF4C3130C
:100383002F5582FF50090EBE00050DBD00010CC3A1
:10039300EB9FF5F0EA9E42F0E99D42F0E89C45F0C0
:1003A3006007CC4820E701B3EC2275F020800E757E
:1003B300F010800575F0087D007E007F003392D534
:1003C30030D50312081CEC334010EF33FFEE33FE3D
:1003D300ED33FDEC33FCD5F0ED22E5F0247EA2D520
:1003E30013CC92E7CDCEFF22EDD2E7CD33EC33929F
:1003F300D524814006E4FFFEFDFC22FCE4CFCECDF4
:10040300CC24E0501174FF80EDC3CC13CCCD13CDBD
:10041300CE13CECF13CF0470F030D5DE02081CE923
:10042300D2E7C933E833F892D5EDD2E7CD33EC33D5
:10043300FC5002B2D522EC30E7100FBF000C0EBE09
:1004430000080DBD00040BEB6014A2D5EB13FCED0B
:1004530092E7FD2274FFFCFDFEFF22E480F8A2D5A3
:1004630074FF13FC7D80E480EFE709F608DFFA8070
:1004730046E709F208DFFA803E88828C83E709F0B9
:10048300A3DFFA8032E309F608DFFA8078E309F2A2
:1004930008DFFA807088828C83E309F0A3DFFA8097
:1004A3006489828A83E0A3F608DFFA805889828A06
:1004B30083E0A3F208DFFA804C80D280FA80C68002
:1004C300D4806980F28033801080A680EA809A808D
:1004D300A880DA80E280CA803389828A83ECFAE4D6
:1004E30093A3C8C582C8CCC583CCF0A3C8C582C8B2
:1004F300CCC583CCDFE9DEE7800D89828A83E49370
:10050300A3F608DFF9ECFAA9F0EDFB2289828A83CE
:10051300ECFAE0A3C8C582C8CCC583CCF0A3C8C598
:1005230082C8CCC583CCDFEADEE880DB89828A839C
:10053300E493A3F208DFF980CC88F0EF60010E4E5C
:1005430060C388F0ED2402B4040050B9F582EB24B3
:1005530002B4040050AF23234582239004BC73C22A
:10056300D530F707B2D563F0FF05F030E70CB2D50D
:10057300F4048463F0FF05F080018430D502F404B1
:1005830022BB010689828A83E0225002E722BBFE56
:1005930002E32289828A83E49322BB010CE5822948
:1005A300F582E5833AF583E0225006E92582F8E6F1
:1005B30022BBFE06E92582F8E222E58229F582E5DF
:1005C300833AF583E49322BB010689828A83F0226E
:1005D3005002F722BBFE01F322F8BB010DE582298D
:1005E300F582E5833AF583E8F0225006E92582C8CF
:1005F300F622BBFE05E92582C8F222EF8DF0A4A8FE
:10060300F0CF8CF0A428CE8DF0A42EFE22BC000BDC
:10061300BE0029EF8DF084FFADF022E4CCF875F035
:1006230008EF2FFFEE33FEEC33FCEE9DEC98400514
:10063300FCEE9DFE0FD5F0E9E4CEFD22EDF8F5F0DA
:10064300EE8420D21CFEADF075F008EF2FFFED33E2
:10065300FD4007985006D5F0F222C398FD0FD5F060
:10066300EA22C2D5EC30E709B2D5E4C39DFDE49C90
:10067300FCEE30E715B2D5E4C39FFFE49EFE1206FD
:1006830010C3E49DFDE49CFC800312061030D507E3
:10069300C3E49FFFE49EFE22C5F0F8A3E028F0C563
:1006A300F0F8E582158270021583E038F022A3F892
:1006B300E0C5F025F0F0E582158270021583E0C8ED
:1006C30038F0E822BB0110E58229F582E5833AF58B
:1006D30083E0F5F0A3E0225009E92582F886F008CB
:1006E300E622BBFE0AE92582F8E2F5F008E222E5FC
:1006F300832AF583E993F5F0A3E99322E88FF0A425
:10070300CC8BF0A42CFCE98EF0A42CFC8AF0EDA495
:100713002CFCEA8EF0A4CDA8F08BF0A42DCC3825C8
:10072300F0FDE98FF0A42CCD35F0FCEB8EF0A4FEA8
:10073300A9F0EB8FF0A4CFC5F02ECD39FEE43CFC3D
:10074300EAA42DCE35F0FDE43CFC2275F008758259
:1007530000EF2FFFEE33FECD33CDCC33CCC5823348
:10076300C5829BED9AEC99E58298400CF582EE9B4D
:10077300FEED9AFDEC99FC0FD5F0D6E4CEFBE4CD6B
:10078300FAE4CCF9A88222B800C1B90059BA002D05
:10079300EC8BF084CFCECDFCE5F0CBF97818EF2FBE
:1007A300FFEE33FEED33FDEC33FCEB33FB10D703ED
:1007B300994004EB99FB0FD8E5E4F9FA227818EF96
:1007C3002FFFEE33FEED33FDEC33FCC933C910D7F5
:1007D300059BE99A4007EC9BFCE99AF90FD8E0E402
:1007E300C9FAE4CCFB2275F010EF2FFFEE33FEEDD8
:1007F30033FDCC33CCC833C810D7079BEC9AE899A8
:10080300400AED9BFDEC9AFCE899F80FD5F0DAE489
:10081300CDFBE4CCFAE4C8F922C3E49FFFE49EFED7
:10082300E49DFDE49CFC22EB9FF5F0EA9E42F0E997
:100833009D42F0EC6480C864809845F022EB9FF5FC
:10084300F0EA9E42F0E99D42F0E89C45F022E86020
:100853000FECC313FCED13FDEE13FEEF13FFD8F102
:1008630022BB010789828A830209245005E9F80221
:100873000918BBFE05E9F802093089828A83020957
:100883003CECF0A3EDF0A3EEF0A3EFF022A88285F9
:1008930083F0D083D0821208A71208A71208A712E8
:1008A30008A7E473E493A3C583C5F0C583C8C582D1
:1008B300C8F0A3C583C5F0C583C8C582C822F5F0B7
:1008C300C582A4C582C5F0C583A42583F58322BB55
:1008D300010789828A830209555005E9F802094C08
:1008E300BBFE05E9F802095E89828A83020967D0A3
:1008F30083D082F8E4937012740193700DA3A393D1
:10090300F8740193F5828883E4737402936860EF4B
:10091300A3A3A380DFE6FC08E6FD08E6FE08E6FFE6
:1009230022E0FCA3E0FDA3E0FEA3E0FF22E2FC083B
:10093300E2FD08E2FE08E2FF22E493FC740193FD6A
:10094300740293FE740393FF22E6FB08E6FA08E6BB
:10095300F922E0FBA3E0FAA3E0F922E2FB08E2FAC2
:1009630008E2F922E493FB740193FA740293F922E7
:1009730043BA8078FBE6FBAF9FC3EF9BFFE4940091
:10098300FEE49400FDE49400FCE47BF07AD2F9F8F1
:100993001206FFE42FFFEE3436FEED346EFDEC3429
:1009A30001FC900200120884900200E0FCA3E0FD29
:1009B300A3E0FEA3E0FFC00790FE01E0FBE4FAF929
:1009C300F8D00712078A9002001208847FC07EF6CF
:1009D3007D577C00900200E0F8A3E0F9A3E0FAA3BE
:1009E300E0FBC312084050097F007E607D547C0009
:1009F300227FC07E267D827C00900200E0F8A3E087
:100A0300F9A3E0FAA3E0FBC312084050097F807EFC
:100A13008D7D5B7C00227F807EED7DAF7C0090022C
:100A230000E0F8A3E0F9A3E0FAA3E0FBC312084057
:100A330050097F007EC07DA87C00227F807E2D7DB3
:100A4300E87C00900200E0F8A3E0F9A3E0FAA3E059
:100A5300FBC312084050097F007E1B7DB77C002238
:100A63007F807E367D257C01900200E0F8A3E0F9CB
:100A7300A3E0FAA3E0FBC312084050097F007E40C5
:100A83007D197C01227F807E567D417C019002008E
:100A9300E0F8A3E0F9A3E0FAA3E0FBC31208405097
:100AA300097F007E2D7D317C01227F007EDB7D5F0F
:100AB3007C01900200E0F8A3E0F9A3E0FAA3E0FBD5
:100AC300C312084050097F007E807D517C01227F44
:100AD300607E197D857C01900200E0F8A3E0F9A314
:100AE300E0FAA3E0FBC312084050097F007E367D85
:100AF3006E7C01227F207EE07DB27C01900200E0CB
:100B0300F8A3E0F9A3E0FAA3E0FBC31208405009FD
:100B13007FC07EFC7D9B7C01227FE07EA67DE07C06
:100B230001900200E0F8A3E0F9A3E0FAA3E0FBC31D
:100B330012084050097F807EC37DC97C01227F60FB
:100B43007E2B7DFF7C01900200E0F8A3E0F9A3E097
:100B5300FAA3E0FBC312084050097F007E407DFAF0
:100B63007C01227FC07E0E7D167C0222900200EF64
:100B7300F0A3EDF0A3EBF0A3E0F8A3E0F9A3E0FA10
:100B8300A3E0FB90020EE0FCA3E0FDA3E0FEA3E0E4
:100B9300FF12078AE47B04FAF9F812078AC3E49F79
:100BA300FFE49EAD07FC900200E0147003020C48C2
:100BB300147003020C8B147003020CE4240360030F
:100BC300020D41900207E0FB7A0064017014439820
:100BD300508D8BECF58D438E40D28EE49001CAF09C
:100BE3008011EB64024A700B4398508DD7ECF5D615
:100BF300438E1553A23F900201E0F9FF7E00700877
:100C0300A3E0640170028035EF64024E700D900220
:100C130002E06403700543A2408022E96404700D7E
:100C2300900202E06405700543A2808010E9640627
:100C3300700B900202E06407700343A2C0E49001CA
:100C4300CAF0D2AC22900207E06402700B439A1000
:100C53008DD7ECF5D6438E1453BAFE900201E0FF14
:100C63007E0064087008A3E0640970028011EF64D9
:100C73000A4E700B900202E0640B700343BA014307
:100C8300AF01E49001CBF022900207E0FB7A00640D
:100C930002700D439A108DD7ECF5D6438E14801154
:100CA300EB64034A700B43AC508DD5ECF5D443D1C0
:100CB3000A53BAFD900201E0FF7E00640C7008A3A2
:100CC300E0640D70028011EF640E4E700B9002020F
:100CD300E0640F700343BA0243AF08E49001CCF021
:100CE30022900207E0FB7A006402700D4384108DAA
:100CF300D7ECF5D6438E148011EB64044A700B4392
:100D030084508DD3ECF5D243D1A053BAFB900201AA
:100D1300E0FF7E0064107008A3E064117002801687
:100D2300EF64124E7010900202E064137008F5CA6B
:100D330075C90443BA0443AF10E49001CDF022789F
:100D43007FE4F6D8FD758107020D89020FE0E49375
:100D5300A3F8E493A34003F68001F208DFF48029AB
:100D6300E493A3F85407240CC8C333C4540F44209A
:100D7300C8834004F456800146F6DFE4800B010289
:100D8300040810204080900F58E47E019360BCA3B8
:100D9300FF543F30E509541FFEE493A360010ECFD7
:100DA30054C025E060A840B8E493A3FAE493A3F801
:100DB300E493A3C8C582C8CAC583CAF0A3C8C582C1
:100DC300C8CAC583CADFE9DEE780BEC0E0C083C00E
:100DD30082C0D075D000C006C00730D822C2D890D8
:100DE30001D6E0FEA3E0F5EAEEF5FA9001CEE0FECF
:100DF300A3E0FF9001D7E02FF09001D6E03EF03062
:100E0300D922C2D99001D8E0FEA3E0F5EBEEF5FBC1
:100E13009001D0E0FEA3E0FF9001D9E02FF0900114
:100E2300D8E03EF0D007D006D0D0D082D083D0E037
:100E33003212097390020E120884E4F594F593F5C7
:100E430092F591F596F595F5B2F5B1F5B4F5B3F5DF
:100E5300CAF5C9F5CCF5CBF5E2F5E1F5D8F5D9F549
:100E6300DEF58EF598F59AF5ACF584F5A2F5BAF5AD
:100E7300AFF589F5E9F5F943BA80120F2F90020314
:100E83001208900001C2009002077402F07B01E493
:100E9300FDFF020B6FC0E0C083C082C0D075D000DD
:100EA300C005C007309907C2999001CAE4F0309891
:100EB3002AC298AF99EFFD647F6005ED64807016D8
:100EC300900215E0FF04F0D3EF94147480948040F3
:100ED3000A75C7608005900215E4F0D007D005D0ED
:100EE300D0D082D083D0E032C2D5E830E70FB2D57C
:100EF300E4C39BFBE49AFAE499F9E498F8EC30E74D
:100F030017B2D5120F2112078AE4C39BFBE49AFAA6
:100F1300E499F9E498F8800312078A30D50DE4C305
:100F23009FFFE49EFEE49DFDE49CFC22E47BE07ACB
:100F33002EF9F890020EE0FCA3E0FDA3E0FEA3E08F
:100F4300FF12078A900212EEF0A3EFF075DD48E47A
:100F5300F5D9D2DE2244020E000000004801D6007B
:100F6300000000000000004801CE00000000000067
:100F7300000042021200004102140000C0E0C083DE
:100F8300C082E5AC30E10853ACFD9001CCE4F0E560
:100F9300AC30E00353ACFED082D083D0E032C0E06B
:100FA300C083C082E58430E1085384FD9001CDE421
:100FB300F0E58430E0035384FED082D083D0E03266
:100FC300AFF9EFFEADE9EDFF900213E02FFF9002C2
:100FD30012E03E8FEDF5FD30DBFDC2DB2212000691
:100FE300120E341200097FD07E07120026B2CA8087
:010FF300F508
:00000001FF
